S0110000626F6F746C6F616465722E733337B8
S3150FE1080050140020253AE10FE30AE10F3938E10FE1
S3150FE10810AF0BE10FCB1FE10FFF23E10F000000004C
S3150FE1082000000000000000004008E10F8F2AE10FF1
S3150FE10830972AE10F7408E10FC736E10F6737E10F2A
S3150FE1084007B0CD5E01000000040008012C33000063
S3150FE108500000000000001000F00010001D3AE10F4B
S3150FE10860213AE10FC520E10F433AE10F753AE10F66
S3150FE108700000000013B779FAC925DDB7ADF3CFE074
S3150FE10880F1B614B8010100000000000028330000A2
S3150FE108904000000004000801000000000000000015
S3150FE108A00000000000000000000000000000000052
S3150FE108B00000000030B50A4B1C6844F040041C6090
S3150FE108C00125084B1D609A605D6002E010F8014B4F
S3150FE108D09C610A46511E002AF8D1D86930BD00BF86
S3150FE108E0B0400E4000C001401CB5044600F074F85C
S3150FE108F02E49B0FBF1F044430722B4FBF2F2521C4E
S3150FE1090000920098411E00280091FAD113BD000014
S3150FE10910F8B52748016841F480110160254802685E
S3150FE1092042F00102026000F057F84FF47A71B0FB22
S3150FE10930F1F0214A24A1800A50601022684600F0A6
S3150FE10940A5F80A208DF8020069461C4800F0E2F886
S3150FE1095005B000BD30B51A4B174C1D69626802FB35
S3150FE1096000506080ADB26088A8429241D20F2270EA
S3150FE1097011B119698142FCD101201860586030BD6F
S3150FE109800D4A1049107820B10B68D80706D400201C
S3150FE1099070470868C30701D50120704788695188F8
S3150FE109A088428041C043C00F7047000040420F00AC
S3150FE109B000400E40C0400E40400400200080014040
S3150FE109C0148001400C80014001000000000000008E
S3150FE109D0000000000000000010B51449086800F09F
S3150FE109E00700022808BF124A18D0124B1868C0F345
S3150FE109F00440112828BF104A10D200BF16A20F4C8F
S3150FE10A00125C0F484243A24208D11B685B0E0120DC
S3150FE10A1003F0030322469840B2FBF0F2C86EC0F32F
S3150FE10A200420401CB2FBF0F010BD000094400E40D4
S3150FE10A3000F0490210400E40C0EA210100093D00D5
S3150FE10A4040420F0040F60A41C1600023436700218F
S3150FE10A50104600F0BDB800000400000700000D10BD
S3150FE10A6013001A20263038404800000062B38B0786
S3150FE10A7008D0521E11F8013B00F8013B00F024802B
S3150FE10A808B07F6D1830740F0208000BF103A07D3DA
S3150FE10A9030B4B1E83810103AA0E83810F9D230BCCA
S3150FE10AA0530724BFB1E80810A0E8081044BF51F876
S3150FE10AB0043B40F8043BD20724BF31F8022B20F860
S3150FE10AC0022B44BF0B7803707047083A07D3B1E89E
S3150FE10AD00810083A40F8043B40F804CBF7D2530725
S3150FE10AE0E4E7FEE7074988421CBF074A904205D073
S3150FE10AF0064988421CBF064A904201D10120704740
S3150FE10B0000207047008001400084014000A00140B1
S3150FE10B1000A401402DE9F04104460D46FFF7E2FF3F
S3150FE10B20287808B90221616000226262697800299A
S3150FE10B30697A14BF402300230029A97A14BF8026BE
S3150FE10B4000260029E97A14BF202700270029297BEF
S3150FE10B5014BF4FF0100C944601B1082195F803E04C
S3150FE10B60AA7895F807804FEA0E4E4EEA026EAA79F9
S3150FE10B704EEA822242EA082E2A7A42EA0E0213430B
S3150FE10B8033433B434CEA03030B4329790029697944
S3150FE10B9014BF4FF40052002209B14FF080511343B5
S3150FE10BA00B43236008B101206060BDE8F081FEE7E9
S3150FE10BB0890001EB401101F184410A607047DFF8CA
S3150FE10BC074104A68D30702D40A680242FCD170470F
S3150FE10BD070B50C460246110A01F00F010020491EBD
S3150FE10BE00929DFF8545013D8DFE801F00513121283
S3150FE10BF0071518121B1FDFF83850C2F3043608B178
S3150FE10C00FFF7DDFF224631462846BDE87040CFE7C4
S3150FE10C1070BD1035F1E730350120EEE7383510209C
S3150FE10C20EBE740354FF48030E7E7DFF81050E4E7C4
S3150FE10C3000400E4040410E40B0400E4050410E4044
S3150FE10C4010B5A448016841F4801101600024A2485F
S3150FE10C50026842F008020260016841F0200101607A
S3150FE10C6001219E48FFF7B4FF01230422072100F07B
S3150FE10C7044F801230122062100F03FF80123012266
S3150FE10C80082100F03AF801230122092100F035F895
S3150FE10C9093494FF0013088670E224A6740F20140CF
S3150FE10CA00B6803430B6005224A604523CB604FF087
S3150FE10CB0E0618C48016000220262C2624263C26651
S3150FE10CC04FF4602388490B608A604C60874A0A6358
S3150FE10CD08C634C63836A00BF92A29B089B009208C8
S3150FE10CE0836292008A610121C163826842F0020246
S3150FE10CF08260BDE81040FFF70BBE002000F049B956
S3150FE10D00764A77480221FFF79DBE38B50D46322D5B
S3150FE10D10044602D341F2031032BD00F021F810B1BF
S3150FE10D2041F2061032BD724902E0225C0A54401CC0
S3150FE10D30A842FAD3486B6D1E65F30E104863343142
S3150FE10D4089086C488900016002226B490A6000F04C
S3150FE10D5007F80028FBD0012000F019F8002032BD7A
S3150FE10D6067486649026893070DD533200246654801
S3150FE10D7000680B68C0F30A10C3F301431818401C4F
S3150FE10D808242F3D170470868C0F3014070475E496C
S3150FE10D9020B1086840F00100086070470A68520800
S3150FE10DA052000A60002101206AE0584910B1802003
S3150FE10DB00860704740220A6070475548006840F264
S3150FE10DC00111884208BF002006D040F20221884275
S3150FE10DD00EBF96204F49401A4F4A1168814201D101
S3150FE10DE00020704701D2401A7047C1F5967140183D
S3150FE10DF07047F8B506460F4615467BB1069C1CB102
S3150FE10E0000212046FFF7A6FDFFF7D7FFB84205D22F
S3150FE10E10002CF9D0FFF7B4FD0028F5D0FFF7CDFF91
S3150FE10E20B84202D2FFF7C9FF074600203B493A4ACB
S3150FE10E30384B05E0002414600C6844F002040C60A2
S3150FE10E40B84210D2146813F804C006F800C0401C6B
S3150FE10E50641CB4F5967F1460ECD0962CF0D10C6837
S3150FE10E6044F00104EBE705B128600020F2BD80B53F
S3150FE10E7000210091012300220121FFF7BAFF02BDF4
S3150FE10E8030B5264A214B50B1906920F002009061AE
S3150FE10E904FF48064106A20F0020010621C60C1B149
S3150FE10EA0002490691FA14008400090618908106AEB
S3150FE10EB04008400010628900194801604FF400654F
S3150FE10EC015490C601D6001205063116841F0020164
S3150FE10ED0116030BD00400E40B0400E40006204008C
S3150FE10EE00008014000200E4080200E4001000E0058
S3150FE10EF080000020C8200E403C200E401008014023
S3150FE10F0020200E40BC200E40740801400C08014021
S3150FE10F1094200E40CC0200204804002008200E4009
S3150FE10F2098200E40500910031C080140CC02002006
S3150FE10F30130000000900000000010000020200009A
S3150FE10F4013000000500910031C0801406203002042
S3150FE10F50130000000900000000020000010100007B
S3150FE10F60D3FFFFFF10B500F00DF804F1806404E044
S3150FE10F7010B500F007F804F1C064012303FA01F19B
S3150FE10F80216010BD30221E4B5043184400F10C0472
S3150FE10F907047F8B50546174638000E461C4607D08A
S3150FE10FA0002C284602D0FFF7E3FF01E0FFF7DAFF57
S3150FE10FB02A4630201249424388180F22082E05D2BD
S3150FE10FC0B300416800F015F8416006E0A6F10803A9
S3150FE10FD09B00816800F00DF881604FB9002C314616
S3150FE10FE0284602D0BDE8F440C2E7BDE8F440B9E7D0
S3150FE10FF0F1BD9A4021EA020207FA03F11143704764
S3150FE1100000A00040890001EB401101F1844108681D
S3150FE1101070473022DFF86C3450431A1802F11C0086
S3150FE11020F0E710B500F00DF804F1806404E010B5B7
S3150FE1103000F007F804F1C064012303FA01F121601E
S3150FE1104010BD3022DFF83C345043184400F10C0454
S3150FE11050704780B5DFF83004016841F48011016013
S3150FE110600123DFF82804026842F0080202600A2130
S3150FE1107004220320FFF78DFF012302220B21032018
S3150FE11080FFF787FFBDE80140FFF7DABD80B500F056
S3150FE11090DBF900F01FF9DFF8F813042008700022DE
S3150FE110A0DFF8F00302700923A72103224370817051
S3150FE110B0026200F013FA002002BD0000FEB5DFF870
S3150FE110C0D043DFF8D453202305F1D80205F190017F
S3150FE110D004F10C0000F0A6FBDFF8B86320780428D2
S3150FE110E0FCD8DFE800F072044C676700F6E70020F2
S3150FE110F0FFF75BFE01210020FFF7C2FEE07820B18A
S3150FE111004FF4FA70FFF7F0FB37E0E9780A2922D0BE
S3150FE111100B2928D0FD2918BFFE292BD1FD203070D0
S3150FE11120A7220121F2703162284600F0E7F8B0708C
S3150FE11130306A7070C11CB0783162182818BF02216D
S3150FE111400FD1DFF85803182201210270016285F8E9
S3150FE111508C10022105E08220A722022130707270E5
S3150FE11160316221700BE0C121A7220220317072702A
S3150FE11170306203E0042000F059F902202070316A51
S3150FE111803046FFF7C2FD50B900F0A4F8FFF7E8FDCE
S3150FE11190316A8842FAD200F087F90020E07000F058
S3150FE111A096F80028FBD00020FFF7F1FDA078C0B13B
S3150FE111B00321217000F08BF80028FBD01420FFF7F4
S3150FE111C093FB00F087F80020207000F080F80028EC
S3150FE111D0FBD00120FFF7E9FD607941F28837D8B1FD
S3150FE111E020E095F88C10607851EA0002EBD00022EE
S3150FE111F0002922703DD100283ED0A94C20788107E5
S3150FE1120008D500F0E7FE616A00F0CFFF40F2022059
S3150FE1121000F0FAFF0020FEBD00214FF47A7003E0E3
S3150FE112200D292CD200213846FFF794FB00F04FF839
S3150FE1123040B300F009F9FFF7A3FB0028F6D0A07839
S3150FE112400028F3D1A1686079491C0028A160E7D194
S3150FE112503D2914D2E0E70199281D425CA72A04D162
S3150FE112600120207043E7A72FFAD0032000F0DEF824
S3150FE11270F6E740F20570FEBD40F20370FEBD40F2A7
S3150FE112800470FEBDFF20E870E81CFFF7F0FDE8787B
S3150FE11290FF28F9D000F008F9281DFFF7E8FDE878F7
S3150FE112A02F79FD2818BFFE28DDD1862FA4BF012097
S3150FE112B000F0BCF84FF4FA700090012301AA791CF3
S3150FE112C0681DFFF796FD0028C5D00220CEE709215C
S3150FE112D000209EE60A210320A3E680B5FFF710FD65
S3150FE112E0002300220A210320FFF753FEBDE8005039
S3150FE112F0002300220B210320FFF74BBE2DE9FC4112
S3150FE113000646664C3179624D012904BF7079512841
S3150FE113101CD1A87870B1266A5E4F32462146B81CB9
S3150FE11320FFF7A4FBB91CA7238B553E620020A870DB
S3150FE11330B8785BE05FF01A025DA12046FFF7A6FBE6
S3150FE113401A2020620121A97029714FE0287908B985
S3150FE113504D204BE07079012803D1852918BF26204E
S3150FE1136044D101A9701D00F0BEF807469DF804109F
S3150FE113709DF804002070062906D100F016F9607079
S3150FE113800020A070032000E0012020620120A87058
S3150FE11390DFF80C8197B140F601117F1A28D07F1E35
S3150FE113A028D07F1E40D07F1E26D07F1E28D07F1EDD
S3150FE113B024D07F1E26D07F1E34D016E0687100211F
S3150FE113C042A0A9600090802306F10802414605F18B
S3150FE113D00C0000F063FA10B198F8020028B198F802
S3150FE113E00200F8B198F80300E0B91820BDE8F681DC
S3150FE113F02420FBE72320F9E72220F7E72720F5E76B
S3150FE114002520F3E798F8020000281CBF98F803009F
S3150FE114100028EAD00121697000F0C7F8401C60701E
S3150FE114201720E3E71920E1E72120DFE7184AD17812
S3150FE1143049B91849087000204870A72303208B701B
S3150FE1144008620121D170704780B50A211548FFF76F
S3150FE11450D9FDB0B10B210320FFF7DBFD88B9FFF70B
S3150FE1146039FF0B210320FFF7D4FD0028F9D0142013
S3150FE11470FFF73AFA00F018F8BDE802403220FFF71D
S3150FE1148033BA01BD00A0004000400E40B0400E400F
S3150FE11490C4000020F8030020880100201C0400206E
S3150FE114A0600100209CA000400A210320BFE5000057
S3150FE114B05201FFFF000000000000000000000000E5
S3150FE114C000000000000418090108000000000000F8
S3150FE114D03320E10F000000004F20E10F34480021D7
S3150FE114E001704170704770B504460D4620780128AA
S3150FE114F008D003284FD0042848D0182818BF43280E
S3150FE1150049D04DE02A4E7078002860780DD1012838
S3150FE1151006D1012171706078A1780918FF2915D0DC
S3150FE115201520287040F6041070BD3178884204D139
S3150FE115300620287040F6061070BD491CC9B28842D4
S3150FE11540E9D01520287040F6051070BD00228021E4
S3150FE11550E01C00F0A1FE04F18301020A0B789A4226
S3150FE1156004D01520287040F6021070BD497800F0BE
S3150FE11570FF00884204D01520287040F6011070BD97
S3150FE115806078307006212970002070BD0620287022
S3150FE1159040F6071070BD1821297040F6081070BD8E
S3150FE115A01820287040F6031070BD01480078704787
S3150FE115B04C0400202DE9F8431E467368002B4ED0EC
S3150FE115C00C4614F0030118BF41F2020048D115464B
S3150FE115D0074600F0FBFC396E001D6A18824221D3E3
S3150FE115E000F1180399421DD28C46844538BF8446D3
S3150FE115F005EB010800F11802904588BF9046ACEB68
S3150FE116000101ACEB000004EB0109A8EB0C0838442F
S3150FE11610424649466830FFF729FAFF2241464846D6
S3150FE1162000F048FE00F0D6FC396E001D884222BF5D
S3150FE116306A18031D9A4209D3411A601807F180010E
S3150FE1164002680A600421FF2200F034FE2146336866
S3150FE11650386E74682A46A047386E2D183D6600200D
S3150FE11660BDE8F28370B54B688C689C4206D200F1F7
S3150FE1167040021B1B14781B19412B01D3002070BDAF
S3150FE11680537814780D68E4188B68EE5C04F03F0428
S3150FE1169006558C68641C8C6013785B1C13708C6820
S3150FE116A04B689C42ECD3012070BD90F840004A682C
S3150FE116B089681018401A70472DE9F0410C46174614
S3150FE116C01D468046FFF7F1FFA84208F1400606D214
S3150FE116D021464046FFF7C6FF10B300204DE000213B
S3150FE116E00CE0707818F800207A54491C737830783A
S3150FE116F05B1C03F03F03421E73703270307808B102
S3150FE11700A942EED3A0686268904238BFA9420CD2D3
S3150FE117102368185C7854491CA268521CA260F1E751
S3150FE117201220B07141F2020027E0A942F8D1069CDE
S3150FE11730B26C29463846FFF7BDF8B06424B1F068BC
S3150FE117402A46394600F0F3FD079838B1F07878B1BB
S3150FE11750B0682B463A46394600F011FEF07838B1BB
S3150FE11760F069B1692818F061884224BF0020F07052
S3150FE1177070692D18756141F20300BDE8F081F8B586
S3150FE1178084B014460026054601960096082302AA60
S3150FE11790FFF792FF41F20306B0423CD195F84300C1
S3150FE117A005F1480738B100F038F83868082302AA7E
S3150FE117B002A900F0E4FD9DF80A209DF80B009DF8C3
S3150FE117C00910120442EA00629DF8080042EA01227A
S3150FE117D0024322609DF80E009DF80F10000440EAC7
S3150FE117E001609DF80D1040EA01209DF80C100843A9
S3150FE117F0606095F8430048B9DFF864178A421CBF69
S3150FE11800DFF86007824201D000F007F86068B86040
S3150FE118100021F960304605B0F0BD7868082202A9CB
S3150FE1182000F085BDF8B5064606F140070020B87110
S3150FE118307870F87038710D4600214FF0FF3039702E
S3150FE11840797103F02003B864396279621446BB708B
S3150FE11850FF22182106F1680000F02CFDFF2204217A
S3150FE1186006F1800000F026FDFF22042106F1840037
S3150FE1187000F020FDBD60FC600020C04600B11DB147
S3150FE118800020C04618B114B941F20B00F2BD14B1F4
S3150FE11890F86800F042FD0020F2BD00002DE9FB4F94
S3150FE118A082460021002300249AB005A880E81A0099
S3150FE118B0059209910AF148061C9A269D06920AF1AC
S3150FE118C0420710E000F076FB0899884233D104987D
S3150FE118D0B0600021F1600398DFF88C16884240F082
S3150FE118E0438102223A7107981C99884280F0D0828F
S3150FE118F041F2030208920DF1280839791229F2D83B
S3150FE11900DFE811F014001500CA02320109030B03D7
S3150FE11910E40254010B034F010B034F012102C302F2
S3150FE119200E0397029A02D401C302DCE7CAE700F07D
S3150FE1193041FB0899884240F0AC82B87820B1039810
S3150FE11940DFF82016884246E03A78D1074DD5787808
S3150FE1195000284AD10398DFF8101688421CBFDFF83A
S3150FE119600C16884225D0DFF8081688421FBFDFF82C
S3150FE1197004168842DFF8001688421AD0DFF8FC1504
S3150FE11980884222D0DFF8D815884265D0DFF8F01506
S3150FE11990884213D0DFF8EC1588420DD0DFF8C41575
S3150FE119A0884215D0DFF8E01588421CBFDFF8DC1559
S3150FE119B0884200F0D98010E00E2293E70F203871AC
S3150FE119C00020B168316170618DE71221397166E0EE
S3150FE119D00020C04600283DD138E01220387103A817
S3150FE119E00020C04600285AD0A7E20398DFF88015F9
S3150FE119F088421AD0DFF87C15884214D0DFF87815C3
S3150FE11A00884215D0DFF85815884221D0DFF85415F2
S3150FE11A10884214D0DFF8701588420ED0DFF86C15C6
S3150FE11A20884208D01AE004225CE7062038715AE7AB
S3150FE11A300721397157E70920F8E70B21F9E700206C
S3150FE11A40C046002804BF7878002803D10C21F0E7BF
S3150FE11A507878002840F088801021EAE703A8002073
S3150FE11A60C046A8B10398706411213971039800201B
S3150FE11A70C046099038788106DCD5099800281CBF45
S3150FE11A8041680029D6D0504688470028D2D054E283
S3150FE11A9012217878397110B141F20400F9E141F27E
S3150FE11AA00800F6E198F8050098F8041041EA0021DC
S3150FE11AB00291C90704D5387840F00100387002E089
S3150FE11AC00020C04640B90020C046002800F0E6815C
S3150FE11AD00298C10500F1E2811220387141F20A0044
S3150FE11AE0D7E10520F978387141F00101F97000204D
S3150FE11AF0F061F068082880F01C82012101910091C4
S3150FE11B0000F05DFA08998842EAD12078DFF880344F
S3150FE11B1040F00200207098F8020098F803109DF843
S3150FE11B202820000440EA016098F8011040EA0120FC
S3150FE11B3010436060DFF85C14B068083860620868CB
S3150FE11B4002689A42CDD198F8062098F8071098F8CE
S3150FE11B500430C068120442EA016298F8051042EABD
S3150FE11B6001221A438242BCD012213971E5E10120EB
S3150FE11B7000F018FA08998842B2D198F8021098F84D
S3150FE11B8003009DF82820090441EA006198F8010055
S3150FE11B9041EA002111430291B068052824BF02985A
S3150FE11BA0B061F0680428E2D30A2142E70020F06130
S3150FE11BB008213EE72B68F06942460AA9E047F0693A
S3150FE11BC04044F061B068F168814280F0AF81A0EBEB
S3150FE11BD00108B8F1040F05A9504608D3FFF765FDD3
S3150FE11BE0042808D205A95046FFF73CFD50E1FFF75F
S3150FE11BF05CFD4045F6D3B8F1410F28BF4FF04008E1
S3150FE11C0000F0CCF9404502D200F0C8F98046B8F1B0
S3150FE11C10040F24BF4FEA98004FEA80080120019094
S3150FE11C200090434600F0C1F90899884240F03181AE
S3150FE11C303879082804D1D5F808C0BCF1000FB9D11D
S3150FE11C40B8F1040FC8F1040B06D20AA8FF225946D0
S3150FE11C50404400F02FFBD84438790A2806D12B46A9
S3150FE11C6042460AA95046FFF7A5FCABE70528A9D1DD
S3150FE11C7099F801008107A5D5E8680028A2D0F06997
S3150FE11C8005280ED208EB000107290AD30AA9091D77
S3150FE11C90081A0AF1840201681160FF22042100F09B
S3150FE11CA009FB2B68F069D5F80CC085E7397888060A
S3150FE11CB040F14181706C0020C0460028099040F048
S3150FE11CC03A813AE14FF0010900F068F9484589D3C5
S3150FE11CD0B068F168A0EB0109B9F1410F28BF4FF0E8
S3150FE11CE0400900F05BF9814502D300F057F98146CF
S3150FE11CF00120019000904B4600F057F90899884270
S3150FE11D002FD1387881060DD5002C1CBFD4F808C029
S3150FE11D10BCF1000FD5D02B464A460AA95046E047FB
S3150FE11D2000281ED1F068B168884280F009813878C1
S3150FE11D308106C7D5002C1CBF21690029C2D05046A8
S3150FE11D4088478146C0E7002000F02CF908998842C0
S3150FE11D5007D1306C9049884204D012223A7141F290
S3150FE11D60050096E00020C04618B91B990120C870FE
S3150FE11D7003E01B99C87800283FD0F87810F0030FDD
S3150FE11D801CBFEC68002C05D02B6804220AF18401F4
S3150FE11D900420A047B06900281CBF686800282CD032
S3150FE11DA04FF0FF3102910AF180040422214602A885
S3150FE11DB000F0F4FA40B100F00DF928B121462B6895
S3150FE11DC06C680422001DA04704220AF1680102A8EB
S3150FE11DD000F0E4FA88B100F0F9F82B686C68142288
S3150FE11DE00AF16C010830A04700F0F0F82B686C6837
S3150FE11DF004220AF16801001DA0471B990120887092
S3150FE11E000D20387144E0002001210190009110234B
S3150FE11E1000F0CBF8089988423BD100F0F5FA802122
S3150FE11E2000900191012330680BAA022100F084FA98
S3150FE11E3078E00120787026E0B87820BB0021019187
S3150FE11E400090402300F0B1F80899884221D17068DB
S3150FE11E5000F06FFA00F0D6FA044600F0D1FA0094DA
S3150FE11E600346706812AA0AA900F0D6FA38B11B998F
S3150FE11E700020C8701220387141F2060009E01B9963
S3150FE11E800120C870B8700121D3E541F2070000E0E7
S3150FE11E9000201DB0BDE8F08FDDF86C90F0680828E2
S3150FE11EA044D2002101200191009000F088F80899B1
S3150FE11EB08842EED198F803000006B0F1407F3FF477
S3150FE11EC0F1AD1220387141F20900E2E7DDF86C90CD
S3150FE11ED0B368F068984229D201210191009100F08F
S3150FE11EE064F808998842D4D11C220AA909F108009D
S3150FE11EF0FEF7CCFD99F8000040F0010089F80000EB
S3150FE11F0009F108000120C0460028E1D112203871FD
S3150FE11F1041F20C00BDE71B9CEBE5DDF86C9051E659
S3150FE11F20DDF86C90F0681028FFF46DAFCDF86C908A
S3150FE11F30A9E71B94D7E4099CF4E641F20100A8E76F
S3150FE11F400994387881069ED5002C1CBFE268002AD9
S3150FE11F5099D029465046904700289AD193E7000039
S3150FE11F60F70A0AF7FC0404FCEB17A603EB17A65EC8
S3150FE11F70F40A0AF4F50909F5F60808F6F70909F777
S3150FE11F80F90707F9FA0606FAFD0303FDFE0101FE5D
S3150FE11F90AD1007B02800E10FE320BBDE05A95046DF
S3150FE11FA0FFF783BB0190009004230AAA05A95046C7
S3150FE11FB0FFF782BB03AA05A95046FFF7E0BB08234B
S3150FE11FC00AAA05A95046FFF777BBFEE7064801685F
S3150FE11FD0086970470548064A00680168914201D1D0
S3150FE11FE000697047002070472808E10F2800E10FCC
S3150FE11FF0AD1007B0F8B50446E00A0D461646B4EB48
S3150FE12000C02004BF204600F03DFA04F50067FF0A41
S3150FE12010FF0204E0384600F035FA07F5006730199C
S3150FE120208742F7D3324629462046BDE8F84000F00D
S3150FE1203062BA38B5644B1B681C69A04222BF5B6963
S3150FE120401518AB4202D3BDE83840D3E731BDF8B539
S3150FE1205004465E485E4B0D46016816460A689A428B
S3150FE1206017D1FFF7B7FF2718F0195A49884210D24F
S3150FE120704CB9FFF7AFFF544909684A6990423CBF33
S3150FE12080086900F0FFF9324629463846BDE8F840BF
S3150FE12090B0E7F1BD7FB504464FEA0D0050A110221E
S3150FE120A0FEF7F4FC002046420DEB0605225CE97BC8
S3150FE120B0914205D1401C1028F5D3012004B070BD23
S3150FE120C00020FBE758B50446434B22686068616B15
S3150FE120D002F160429A422BD23B4A13681A69904247
S3150FE120E026D33C4B984223D2403291420E4601D33E
S3150FE120F0994205D30020C046401E8041C00F52BD14
S3150FE121000020C046B0B93046FFF7C4FF00281CBF18
S3150FE121107069002812D002280CD1B069001D011B8D
S3150FE121204FF0FF322046FEF7C5FB2C49884205D01A
S3150FE12130002052BD2046BDE8524001E0012052BDCC
S3150FE1214038B505469CB06C6B2046FFF7A3FF18B177
S3150FE12150606901280AD1A4691B4801680A6994429A
S3150FE1216028BFAC4202D31B48844201D300201AE0B8
S3150FE1217001A800F0D2F8621B294601A800F0D7F8B2
S3150FE1218001A800F0D6F800F03DF9054600F038F960
S3150FE121900346009504F12002214601A800F03CF91F
S3150FE121A0401E8041C00F1DB030BD80B54FF0FF32EC
S3150FE121B0FEF780FB094B984204BF40F2092000F07D
S3150FE121C023F8002002BD00002808E10F2800E10FE7
S3150FE121D0AD1007B00100100001000400E320BBDEE3
S3150FE121E0B814B6F1E0CFF3ADB7DD25C9FA79B71378
S3150FE121F04FF0005108804FF20F00488070470F49AA
S3150FE122004CF23C30088070474FF0005108804FF296
S3150FE122100F0048800A48016821F4E06141F48061CA
S3150FE122200160BFF34F8F074907480A6802F4E0627E
S3150FE1223002430A60BFF34F8F00BFFDE702000020A4
S3150FE1224000500E400CED00E00400FA054FF000518E
S3150FE122504FF20F024888904201D108887047002853
S3150FE1226004BF0888012802D140F2022070474FF4DB
S3150FE12270007070470A0A42EA01225040C0F3031187
S3150FE12280484080EA003041010206C9B2D20E41EA66
S3150FE122900221484080B2704770B504460D4610469C
S3150FE122A0002604E00146A05DFFF7E4FF761CAE428F
S3150FE122B0F8D370BD62F30F2262F31F42401810F09C
S3150FE122C0030308D0C91A1FD3DB0748BF00F8012D56
S3150FE122D028BF20F8022D130030B4144615461039E5
S3150FE122E028BF20E93C00FAD8490728BF20E90C00AE
S3150FE122F048BF40F8042D890028BF20F8022D48BFBA
S3150FE1230000F8012D30BC7047C91818BF00F8012D30
S3150FE12310CB0728BF00F8012D704710B5044600F032
S3150FE12320E7F92046BDE81040002100F011BA00F0B0
S3150FE1233011BA014600F00FBA2DE9F843089D099F3E
S3150FE1234080460E4691461C4600F0D2FA3A46294699
S3150FE12350404600F0D3FA08F124000021016006752A
S3150FE123600C22494608F13900FEF780FB08F14500DA
S3150FE12370210C220A847001704270BDE8F1833EB5EB
S3150FE12380029201911C4600F12805009500F13803F0
S3150FE1239000F12402214600F0D5FA37BD03000020F3
S3150FE123A013F0030F09D0521E22BF13F8010B11F8D8
S3150FE123B001CBB0EB0C00F3D07047121F22BF53F8DD
S3150FE123C0040B51F804CB6045F7D0121D0AD200BABF
S3150FE123D09CFA8CFCB0EB0C0038BF6FF0000088BFA5
S3150FE123E001207047521E22BF13F8010B11F801CBE2
S3150FE123F0B0EB0C00F6D0521C08BF10467047FEE753
S3150FE124000248704702487047024870474A43E00F57
S3150FE124106A43E00F8642E00F2DE9F84106000D46CB
S3150FE1242018BF002DA1B01446984600D014B940F25A
S3150FE12430016020E0289F11480121FEF7C9FB4021E9
S3150FE1244011A800F025FB414611A800F000FE394620
S3150FE1245019A800F0FCFD294601A800F0F8FD214678
S3150FE1246009A800F0F4FD01A8009011AB2022314636
S3150FE12470034800F0FBFD22B0BDE8F08100050A003C
S3150FE1248000000F4010B53B4C41F67131A163226854
S3150FE1249052085200226001F00CF8226852080146F8
S3150FE124A0520022600020A063481E8041C00F10BD7C
S3150FE124B038B58308800705D54FF6FF7242EA014228
S3150FE124C0009204E041F07F4141F47F01009141F632
S3150FE124D07130284CA063042225686D086D002560D4
S3150FE124E06946980001F028F82268520852002260E6
S3150FE124F00021A16332BD2DE9F04105468846144618
S3150FE1250005F0010104F00100014330D16CB3AA07D4
S3150FE1251007D538F8021B2846FFF7CAFF38BBAD1CB3
S3150FE12520A41E042C1AD3134E41F67130B063A708DB
S3150FE125303168490849003160BF003A4641462846AD
S3150FE1254000F0FAFF31684908490031600022790845
S3150FE12550B26308EB41087D19E41B40B92CB1B8F819
S3150FE1256000102846FFF7A4FF08B9012000E000207C
S3150FE12570BDE8F08108000E402DE9F84F02288346A9
S3150FE125801FD8140055D00B9AD2F800C0BCF13F0FFB
S3150FE12590984618D85068002818BF5FEA080A13D181
S3150FE125A0BBF1000F04D0BBF1020F07D003D308E054
S3150FE125B00FF2B01A08E00FF2CC1A05E00FF2E41AA7
S3150FE125C002E04A4836E0C2460CF03F06A444A44571
S3150FE125D0C6F14005C2F800C002D25068401C5060F7
S3150FE125E089460A9F8EB1AC420FD32A46B819FEF738
S3150FE125F03DFA0120009043463A465146584600F0CF
S3150FE12600C4FFC246A944641B00263F2C0BD9A5097A
S3150FE12610009543464A465146584600F0B6FF09EB48
S3150FE126208519A4EB851424B122464946B819FEF75C
S3150FE126301DFA0020BDE8F28F2DE9F843044620008C
S3150FE1264086B0884616461F4603D0022C30D02DD3CE
S3150FE1265030E01425002100200DF1080C42429200D2
S3150FE1266057F82030D21D01EBC3010CF8021002A975
S3150FE12670114457F82020C91E52098A7057F82020B5
S3150FE12680520B4A7057F82020520D0A7057F8201056
S3150FE12690490F401C0128E1D93A7802F03F02382A66
S3150FE126A034BFC2F13802C2F1780205E01C25D1E749
S3150FE126B02025CFE70D4816E0DDF8389041A10197C7
S3150FE126C0009643462046FFF757FF0197009643468C
S3150FE126D0082202A92046FFF74FFF2A464146484600
S3150FE126E0FEF7C4F9002007B0BDE8F08380AFFFFF26
S3150FE126F000281CBF6C2100F0CBB9704700220029DE
S3150FE12700CCBF012100210262426280F868100020ED
S3150FE1271070473EB5034603F1200493F8680000289D
S3150FE1272003F1280514BF0120022001940095FFF75C
S3150FE1273023FF3EBD1CB590F868200091002A14BF17
S3150FE127400124022400F008F82046FFF775FF16BDB5
S3150FE12750D4E70000DDE7EDE700F1200300F1280201
S3150FE127600146704767452301EFCDAB8998BADCFE89
S3150FE1277010325476C3D2E1F00000000000000000F1
S3150FE1278000000000C1059ED8367CD5073070DD17F5
S3150FE12790F70E5939FFC00B316858151164F98FA738
S3150FE127A0BEFA4FA46A09E667BB67AE853C6EF37264
S3150FE127B0A54FF53A510E527F9B05688C1F83D9AB16
S3150FE127C05BE0CD1980000000000000000000000072
S3150FE127D00000000000000000000000000000000003
S3150FE127E000000000000000000000000000000000F3
S3150FE127F000000000000000000000000000000000E3
S3150FE1280000000000890001EB401101F184410A60EB
S3150FE12810704710B50A684B688C68C9680260036037
S3150FE128200460016010BDF4E710B50268036804683F
S3150FE1283000680A608C604B60C86010BD38B5102A1D
S3150FE1284004460D460DD101220021FFF7DBFF04F50A
S3150FE12850887429462046FFF7DCFF05F11001204673
S3150FE1286006E000220021FFF7CDFF294604F12400FF
S3150FE12870BDE83440CDE71FB50C4614F0030108D08F
S3150FE128806946FFF7D1FF102269462046FEF7EEF8BB
S3150FE128901FBD2146FFF7C8FF1FBD1FB5044611F047
S3150FE128A0030008D010226846FEF7E0F86946204695
S3150FE128B0FFF7B9FF1FBD2046FFF7B5FF1FBD38B5BF
S3150FE128C0044611F0030088B015460CD0082D0CBF55
S3150FE128D0102220226846FEF7C9F82A4669462046A5
S3150FE128E0FFF7ACFF02E02046FFF7A8FF09B030BDC6
S3150FE128F000281CBF242100F0CBB8704770B5050046
S3150FE129000C4618BF002C164602D16FF0210070BDA0
S3150FE12910242100F0BDF8802E18BFB6F5807F02D0D6
S3150FE129206FF0220070BD2E60F2082146281DFEF7DA
S3150FE129309DF8002070BD594605F180009BE748469A
S3150FE1294000F0BEBE2DE9F64F83B0002A14BF14681E
S3150FE1295000240027009000281CBF0F9E002E09D0EF
S3150FE12960DDF84080B8F1000F1CBF0193002B01D0B9
S3150FE129700E9810B96FF0210075E00098006802918A
S3150FE12980802818BFB0F5807F04D06FF022006AE08F
S3150FE1299000F06CF80298874261D2002CF8D100F072
S3150FE129A09AFE0546002068604FF4404129604FF0DA
S3150FE129B0000A00F0BBFE81460098016880290CBF32
S3150FE129C008221022011D2846FFF779FF019905F12B
S3150FE129D08400FFF762FFFFF7B2FF0298A0EB07094A
S3150FE129E013E000F04EF80AF1010A00F09FFE83466C
S3150FE129F0F11905F1A000FFF750FF08EB0701FFF70B
S3150FE12A009BFF584600F05CFE1037BAEB191F15D243
S3150FE12A104820A8600521A960E3E76CB94820A860C2
S3150FE12A200521A96000F02DF800F080FE81460E9990
S3150FE12A30FFF782FFFFF783FF00F018F80298C01B3C
S3150FE12A40EBD100F073FE8146019905F18400FFF7A2
S3150FE12A5012FFFFF774FF284600F048FE9AE7049845
S3150FE12A6000B10460002005B0BDE8F08F0E9AF15D6C
S3150FE12A70105D414008F80710641C04F00F047F1C39
S3150FE12A80704728698107FCD40320A8607047FEE7E9
S3150FE12A90002200F04FBEFEE710B50A684B688C685E
S3150FE12AA0C968026003600460016010BD10B5026879
S3150FE12AB00368046800680A608C604B60C86010BDEB
S3150FE12AC038B504460D46FFF7E7FF05F1100120463D
S3150FE12AD0BDE83440E0E738B504460D46FFF7E6FFBB
S3150FE12AE005F110012046BDE83440DFE738B500F0C7
S3150FE12AF00EF804F10C0104E038B500F008F804F122
S3150FE12B002C011846BDE838402022FDF7AFBF8C24D3
S3150FE12B100FF2B87560430B462C187047082250F830
S3150FE12B20041B21B9521EFAD10020C0B27047100022
S3150FE12B30FBD00120F9E7F8B500F068F90746294619
S3150FE12B4004F58470FFF7BCFF314604F58670FFF795
S3150FE12B50B7FF384600F0B4FDDFF8E4062065012142
S3150FE12B6061656069000E00F0010080F00100F2BDC1
S3150FE12B702DE9F84F88B004460D4692461E4600F001
S3150FE12B80D5FD834604F5827705F1400100F035F96D
S3150FE12B9004F58678514600F026F904F588790AF1AD
S3150FE12BA020014846FFF78CFF00F022F900F048FAC2
S3150FE12BB0A065E16504F5847A00F0B8FD8346294600
S3150FE12BC000F01BF905F1200100F010F905F14001C4
S3150FE12BD04846FFF775FF00F00BF9DFF86806DFF8F7
S3150FE12BE06816206561650120A06504F5807900F01E
S3150FE12BF09DFD834606F140014846FFF76CFF6946A6
S3150FE12C005046FFF768FF00F0F3F800F08FFD8346BB
S3150FE12C1000F0E8F800F0ECF8DFF83006DFF83016F0
S3150FE12C20206561650121DFF82C0600F0E8F88046A2
S3150FE12C3000F0E1F800F02FF9DFF81C06DFF81C16BB
S3150FE12C4000F020F8054631465046FFF744FF284687
S3150FE12C5000F036FD00F06AFD054669463846FFF796
S3150FE12C602FFF284600F02CFDDFF8F405DFF8F41509
S3150FE12C7000F008F8044600F0B1F800F0C4F809B026
S3150FE12C80BDE8F08F206561650120A06500F04EBDBE
S3150FE12C902DE9F84F98B000F0B9F8804604F5827740
S3150FE12CA000F0A9F800F0F7F8DFF8BC05DFF8BC157E
S3150FE12CB02065616504F58078DFF8B405FFF7E5FF78
S3150FE12CC0814608A94046FFF706FF484600F0F8FCA3
S3150FE12CD000F02CFD814600F085F8484600F0F0FC47
S3150FE12CE0DFF89005DFF89015206561654FF4867082
S3150FE12CF0A06504F5867900F019FD824610A94846CC
S3150FE12D00FFF7E9FE69464046FFF7E5FE504600F05C
S3150FE12D10D7FC00F00BFD824605F1400100F06DF89E
S3150FE12D20504600F0CDFCDFF85405206501216165C1
S3150FE12D3004F5847A00F0FAFC8346294600F056F84A
S3150FE12D4000F056F8DFF83805DFF8381520656165CC
S3150FE12D500121DFF8340500F052F883466946504603
S3150FE12D60FFF7AEFE10A94846FFF7AAFE00F040F8BE
S3150FE12D70DFF81805DFF8181520656165DFF814052A
S3150FE12D80FFF783FF8346314604F58870FFF7A3FE0D
S3150FE12D9000F02EF800F0CAFC834600F02CF805F19E
S3150FE12DA0400100F023F808A94846FFF789FE00F035
S3150FE12DB01FF8DFF8E404DFF8E4142065616500F03D
S3150FE12DC0B5FC044606F140014046FFF784FE00F0EC
S3150FE12DD005F800F018F819B0BDE8F08F06F12001FB
S3150FE12DE0484678E6294640466AE63146504667E662
S3150FE12DF0584600F065BC05F12001384660E6A0654E
S3150FE12E00E16500F093BC204600F05ABC04460D463E
S3150FE12E10164600F08BBC2DE9F04105460E461C46E1
S3150FE12E20174620212046FFF733FE0122226000F0EC
S3150FE12E307DFC8046394605F58070FFF741FE314648
S3150FE12E4005F58270FFF73CFE05F58476214630469F
S3150FE12E50FFF736FE00F01FF8DFF8440428650BE0B4
S3150FE12E60DFF84014DFF8400429656865DFF83C14A4
S3150FE12E70DFF83C04A965E8656869C101F0D500F0A2
S3150FE12E8055FC054621463046FFF725FE2846BDE8A7
S3150FE12E90F04100F015BC404600F012BC50F8043B7F
S3150FE12EA0934203D007E050F8042B22B9091F0129F9
S3150FE12EB0F9DA01207047002070472DE9F04188B01B
S3150FE12EC004460E460E9F1546984620216846FFF7A3
S3150FE12ED0DFFD0122009220213846FFF7D9FD20219F
S3150FE12EE007F12000FFF7D4FD202107F14000FFF79E
S3150FE12EF0CFFD8C200FF2D43110FB06F68E1920464A
S3150FE12F00317A00F031FC002020602063606376683F
S3150FE12F10761E002E3ADD00F03EF8F9D536E0202296
S3150FE12F2029463846FDF7B2FD202205F1200107F1CA
S3150FE12F302000FDF7ABFD2022694607F14000FDF7C2
S3150FE12F40A5FD22E03A4639462046FFF7A1FE00F0FD
S3150FE12F5022F81AD5002220213846FFF79FFF70B1DC
S3150FE12F600022202107F12000FFF798FF38B1002258
S3150FE12F70202107F14000FFF791FF0028CFD13B4613
S3150FE12F802A4639462046FFF7F3FD761E002ED9D5A0
S3150FE12F9008B0BDE8F081301106EBD060401158F86A
S3150FE12FA02010A6EB4010C140CA0770472DE9F0414A
S3150FE12FB004460F461D4616463B468C200FF20C3251
S3150FE12FC04343D01890B0017A204600F0CDFB0022A2
S3150FE12FD022602263626369463846FFF787FD08ABD5
S3150FE12FE06A4606F140012046FFF715FF00F09EFB0A
S3150FE12FF0804608A904F58270FFF762FD04F586772E
S3150FE130003146FFF7FAFE06F1200104F58870FFF766
S3150FE1301057FDFFF740FF00F013F8FFF7F0FE064606
S3150FE1302005F1200104F58070FFF755FD2946384675
S3150FE13030FFF751FD304600F043FB10B0BDE8F081DC
S3150FE1304089489C492065616501219B48704738B5E0
S3150FE130500D4604462021FFF71BFDFFE71F204242E5
S3150FE13060295C2244401ED177F9D531BD2DE9F04FC8
S3150FE130700D0018BF5FEA0308B9B0144603D0429EAC
S3150FE130800EB1002C02DC40F20160D5E007460020CC
S3150FE130903860386378630C21786840F01000786007
S3150FE130A0384600F061FB786820F4406040F4006038
S3150FE130B0786011A9786820F4407040F40070786068
S3150FE130C00020FFF719FD11AA31463846FFF733FD08
S3150FE130D078B93046FFF722FD58B111AA06F1200162
S3150FE130E03846FFF728FD20B906F12000FFF716FD58
S3150FE130F010B940F202609FE0202CC8BF20242021A6
S3150FE1310019A8FFF7C5FC002014E0221A521E09A9DF
S3150FE131109208A4F1010E01EB8201AEEB000E2B5CDE
S3150FE131200A6C4FEACE0E0EF0180E03FA0EF31A439F
S3150FE131300A64401CA042E8DB00F0F8FA044607F502
S3150FE13140847519A92846FFF7BBFCFFF75CFE5B48C0
S3150FE13150386507F5807400F0E9FA814619A920462A
S3150FE13160FFF7B9FC484600F0ABFA01AB11AA06F13D
S3150FE1317020013846FFF74FFE00F0D8FA834601A942
S3150FE1318007F58270FFF79CFC07F5887919A9484680
S3150FE13190FFF796FC07F5867AFFF727FEFFF728FE7E
S3150FE131A0474848493865796500F0C0FA834619A959
S3150FE131B04846FFF790FC01A92046FFF78CFCFFF785
S3150FE131C017FE21A8009019AB53A200213846FFF74D
S3150FE131D074FE09A8009001AB424600213846FFF77D
S3150FE131E06CFE21AB21AA00213846FFF7DFFE09ABC2
S3150FE131F021AA09A93846FFF7BBFC09AB09AA0021A9
S3150FE132003846FFF7D3FE00F091FA04460C21384613
S3150FE1321000F0AAFA09A92846FFF752FCFFF7E5FDE8
S3150FE13220FFF7F1FD28482249386579657869C101CB
S3150FE132304CBF002040F2046039B0BDE8F08F0000CA
S3150FE132403035DA10D01482CB1481E11C8CE11C816C
S3150FE132501C84D91C8391D11CE014D8141482E11C6F
S3150FE1326084D31482D11CE0148AD11C81821CC00C38
S3150FE132700C0C0100C00C0C83D91C83D88AD11C839A
S3150FE13280DA0C811482D11C81C80C0C818CE11CD023
S3150FE132901484E31482D11C01D81483D11CC00C0110
S3150FE132A039398401D02484FC1C82FED88B1C81A081
S3150FE132B039380100D91C83D11C81E11C30D00C01B6
S3150FE132C030E11C8430D91C013035DA1420000000BE
S3150FE132D000010000050C0000FFFFFFFFFFFFFFFFEE
S3150FE132E0FFFFFFFF000000000000000000000000EC
S3150FE132F001000000FFFFFFFF512563FCC2CAB9F3CE
S3150FE13300849E17A7ADFAE6BCFFFFFFFFFFFFFFFFA6
S3150FE1331000000000FFFFFFFF96C298D84539A1F4E0
S3150FE13320A033EB2D817D0377F240A463E5E6BCF88C
S3150FE1333047422CE1F2D1176BF551BF376840B6CB57
S3150FE13340CE5E316B5733CE2B169E0F7C4AEBE78E53
S3150FE133509B7F1AFEE242E34F10B57A497A4A01E0C2
S3150FE1336021B1491E1369DC07FAD411B96FF00200D6
S3150FE1337010BD5060012010601169480702D54FF06A
S3150FE13380FF3010BD002010BD2DE9F0410446104677
S3150FE133900B460022002B41D06FF001056FF00208BA
S3150FE133A06849694FA8B994469C4537D254F8040B3E
S3150FE133B0F8600CF1010C08203860084601E080B393
S3150FE133C0401E3E69F607FAD458B338698007EBD544
S3150FE133D023E0EFF3108072B694460FE03E6906F0F4
S3150FE133E01906102E08BF3E603E693607F6D554F82A
S3150FE133F0046BFE600CF1010C10263E609C45F3D385
S3150FE1340018B962B601E021B1491E3869C307FAD48A
S3150FE1341001B942463869810700D52A461046BDE80B
S3150FE13420F0814246FAE72DE9F84F454CA56BADB26F
S3150FE1343005B1012541F67136A6634FEA92083F4E73
S3150FE1344037683668266846F0010626604FF00009B0
S3150FE1345006468A469B46002013E0C7F30A07C7F5DF
S3150FE134600067BF08A8EB0900B84238BF07465A46BE
S3150FE1347039465046FFF788FF010010D1B9440AEBF0
S3150FE13480870AC1450BD206EB89073846FFF764FF7A
S3150FE134900100E2D0216849084900216003E0226872
S3150FE134A0520852002260EDB20DB10021A163BDE8D1
S3150FE134B0F28F70B5224B23490246986B80B200B169
S3150FE134C0012041F671349C631C4C256824681E6803
S3150FE134D046F001061E609A6001225A605C69620736
S3150FE134E004D500F021F84FF0FF3070BD02225A608B
S3150FE134F05A69D40710D5002918BF491EF8D10BE038
S3150FE135000029196804D100F010F86FF0020070BDC0
S3150FE1351000F00BF8002070BD5A699407F0D500F062
S3150FE1352003F86FF0010070BD196849084900196089
S3150FE1353008B1002098637047002374E704300E400A
S3150FE1354008000E40809698000C000E4010B50A68F0
S3150FE135504B688C68C968026003600460016010BD46
S3150FE1356010B502680368046800680A608C604B60F6
S3150FE13570C86010BD38B504460D46FFF7F1FF05F1FA
S3150FE1358010012046BDE83440EAE72DE9F84F98B03F
S3150FE1359006460C4690469A4600F09DF805461EB142
S3150FE135A0022E52D051D352E00020286000216960EB
S3150FE135B00020E864696821F4406169602863686303
S3150FE135C054F8201009BA4DF82010401C0828F7D3FB
S3150FE135D000F0ACF8044605F5827669463046FFF70A
S3150FE135E0B5FF04A93046FFF7B1FF204600F068F8B2
S3150FE135F02F4828650027229C05F5D276A74242D2AD
S3150FE1360018F0030008EB871906D04022494608A8AF
S3150FE13610FDF72CFA0DF1200900F088F883464946AB
S3150FE1362000F04CF809F1100100F048F809F120011A
S3150FE1363000F044F809F1300100F040F8584600F087
S3150FE136403FF81C4828657F1CD8E70420ADE71A48E8
S3150FE1365016E000F06BF8044651463046FFF78AFF55
S3150FE13660204600F02DF8284600F040F800205AF8E1
S3150FE13670201009BA4AF82010401C0828F7D3002079
S3150FE1368019B0BDE8F08F1AF0030005F58076E0D0AA
S3150FE1369000F04CF8044669463046FFF76BFF2046CB
S3150FE136A000F00EF8202269465046FDF7DFF9DAE71A
S3150FE136B0888AC801070D810180AFFFFF304645E7D4
S3150FE136C000B962B67047FEE7890001EB401101F1DF
S3150FE136D084410A60704780B5FFE7012200210C485B
S3150FE136E0FFF7F2FF0B4802BD0000000009498842CF
S3150FE136F008D1002009A101EBC00300225968044853
S3150FE13700E2E7704704498842FBD10120F2E7000066
S3150FE13710B0400E4000000F4000040F4000000F4084
S3150FE137200000000000040F4001000000EFF31080DD
S3150FE1373072B6704700B500BF13009646944610392E
S3150FE1374028BFA0E80C50FAD85FEA417C28BF0CC02D
S3150FE1375048BF40F8042BC90728BF20F8022B48BF02
S3150FE1376000F8012B00BDFEE742685209042941EA40
S3150FE1377042120AD9491F022905D9C91E032904D9BB
S3150FE13780091F022902D842F010024260704730B495
S3150FE13790002513E050F8042BD30744BFA9F1010329
S3150FE137A09A18091F042942F8045BFAD213468C07CB
S3150FE137B044BF15809B1CC90748BF1D7050F8041BF9
S3150FE137C00029E7D130BC704738B5174C206840F077
S3150FE137D0080020600123042200F02AF8002100915D
S3150FE137E002E00098401C009000986428F9DB012361
S3150FE137F0022200F01DF8002001E00098401C009025
S3150FE138000098B0F5FA7FF8DB08490868012814BF7C
S3150FE13810012500250123002200F00AF8206820F097
S3150FE1382008002060284632BDB0400E409821144270
S3150FE1383006210520FDF7ADBB4FF40170FEF7E4BCA1
S3150FE1384010B54549454A012048641068444A000EBF
S3150FE1385009D14AF6E850D0620020536B43F00403D6
S3150FE138605363D06201E0012803D8106840F4005099
S3150FE1387010603C48026822F4401242F4881202605A
S3150FE13880086840F48070086040213748C1600268DB
S3150FE138905103FCD40020C046FEF7B1FCFDF7D9FB7E
S3150FE138A0FDF7F4FB18B14FF40170FEF7ADFCFDF730
S3150FE138B005FC0446FDF711FD002C19BF40F203701C
S3150FE138C0844240F20120FEF79FFC40F205708442EC
S3150FE138D01BBF40F206718C4240F203204FF4017098
S3150FE138E0FEF792FC002010BD38B52048016801248F
S3150FE138F001254A050AD5FEF7A9FC40F20221401A35
S3150FE1390007D0C01E05D0C01E012802D9FFF75CFF04
S3150FE1391008B1002400250420016811F1010F06D139
S3150FE13920BDE832404FF40270FEF762BC31BD25B1FE
S3150FE139300020FEF7C7FB0400F2D0002CF6D00C49AD
S3150FE139400020086000221046016881F3088881F3A0
S3150FE13950098840688746FEE700000E40FC81E00FCC
S3150FE1396064310E4020400E4004300E4004500E40AC
S3150FE1397008ED00E00449054808600548026842F48D
S3150FE13980700202607047000008ED00E00008E10FE9
S3150FE1399088ED00E04EF68851CEF20001086840F45A
S3150FE139A070000860BFF34F8FBFF36F8F4FF000705A
S3150FE139B0E1EE100A704700000120C046002801D051
S3150FE139C000F00AF8AFF300800020AFF30080FFF7B5
S3150FE139D037FF00F015F8000010B5074979441831A3
S3150FE139E0064C7C44163404E00A68081D11448847E6
S3150FE139F00146A142F8D110BDF00000000C01000014
S3150FE13A0000F000B80746384600F002F8FBE7000081
S3150FE13A102021090326311820ABBEF9E700207047B4
S3150FE13A200020704780B5FFF7A5FFFFF75DFFBDE803
S3150FE13A30014000F000B8AFF30080FFF7ABFFFFF7EF
S3150FE13A40BBFF10B5B1F5BE7F044602D240F20520A9
S3150FE13A5010BD4FF4BE71FFF71BF80020607004F53F
S3150FE13A60807204F1B80104F12800BDE8104000238B
S3150FE13A70FDF7D8BE1CB500910446214604F1280096
S3150FE13A80FDF70CFF00281CBF41F207018842C4F87D
S3150FE13A9078010BD1A07838B1E07810B140F203206C
S3150FE13AA016BD40F2022016BD40F2012016BD30B51B
S3150FE13AB0016884684218416802EB5103C9070BD5C7
S3150FE13AC04C4409E012F9011B12F8015B002904F8D5
S3150FE13AD0015B05D5491CF9D19A42F3D10C3030BDC2
S3150FE13AE0491EF1D5F8E70000A7FCFFFFC802000069
S3150FE13AF08801002000000000B7FFFFFF0C00000067
S3150FE13B003600000080000020CC000BF07F103080E3
S3150FE13B1000002034080140F90000018100E60000B1
S30D0FE13B20FFDA000000000000CE
S7050FE13A3799
