S01500007377697463685F627264343135382E733337E4
S1130000001C0020F5AA00006DAC000071AC0000DB
S113001075AC000079AC00007DAC0000000000006D
S113002000000000000000000000000081AC00009F
S113003085AC00000000000089AC00008DAC00001D
S1130040F9A20000B51E000091AC000095AC0000C0
S1130050B91A0000F51E0000BB1E0000BD1E000002
S1130060B71E0000B9A400002B6C0000FDA800001E
S1130070498A000099AC00009DAC0000A1AC0000CE
S1130080A5AC0000A9AC0000496C0000ADAC0000B8
S1130090B1AC0000B5AC0000B9AC0000BDAC0000D0
S11300A0C1AC0000C5AC0000C9AC0000CDAC000080
S11300B0F71E0000B91E000061AA0000219B000089
S11300C0271F0000D1AC000005AB0000D5AC000038
S11300D0D9AC0000DDAC0000E1AC0000E5AC0000F0
S11300E0E9AC0000EDAC0000F1AC0000F5AC0000A0
S10F00F0F9AC0000FDAC000000000000B2
S11301000298380002983E000298D203029804072D
S11301100298560002987C00029856000298060144
S1130120029896020298BE020298600002982C037C
S113013002989E03029866000698C80900F806987B
S1130140C80900C5981F002154150698C80C00C59D
S11301509C1F002100F80698C8090698BC0D187069
S11301600698C8090E700698C8090698941106984E
S1130170BC0D069808030698820C00F80698C80976
S113018010B902BA0698720406982E0200C59C1F84
S1130190002100F89112033288B903DE40727179AC
S11301A0A11020D808710698C80C6C7000C3F01E0A
S11301B00021341380DB1A7100C3A8100840A11475
S11301C01034024C481300BC4813911407644813BC
S11301D08CBB627B40D80671517900BA076A00C0B3
S11301E0A00008400698EA00042008780978041161
S11301F021411810911102D90C7200C1681F00210D
S11302000698340200A00698C80900BD06981A0B87
S113021010B903DC047100B902BA0698720404D957
S1130220067100404272811008D8107106981A0BAA
S113023003DC08720698D604287006985002FFD88A
S11302400E7288B84778457800B8447844709110A5
S113025010D80E7100BB00C46C5008400698AA0464
S113026020B802A800F800C0F01E0021041320DB0F
S11302702071911010D80E710760FFD808728CB8E5
S11302804478947008DB9072A11328DB8A7203BD52
S1130290069822020698BC0D00C5A01F00210698EE
S11302A01A0B00BA03DC4272042500C00C5108404A
S11302B006988809211400C014000840041002683C
S11302C004233411112800C130610840141107615E
S11302D080D90C71911108D90671FC23E025F8230B
S11302E0341106981A12412A5415212D00C0F860C1
S11302F00840041101D924718020D820041100C0C1
S1130300FC0069001050147200C01400084004116D
S1130310FB2108760EBA066A212D0698660B029810
S113032084109110015503355150011900A000C1EA
S1130330641F0021141101D9167100C02460084003
S11303400412215107610F3107691152281000A0CE
S1130350811180D9067201B800A000C10C50084078
S113036014100630307264211412EC21141007604A
S1130370076040302072811080D8DC711410014A6B
S113038007620360803021508C480A717F21552117
S11303901410013000A00698C8090698BC0D00BDD1
S11303A00698220288B84778457800B8447800C592
S11303B0A81F002154150698660B0298841006980D
S11303C0C80900C4BC1F002144141DB3315B302C88
S11303D0207506986C0900C060000840041001688C
S11303E001D80E7100C064000840237808B865780D
S11303F006985002FFD8067208B8607800C2000060
S113040002020698700400F800B900C29C1008406B
S113041018121C220AB9181288BA911104310472F4
S1130420487A507A517A8CB9427900A00698C80962
S113043006981A0B07DC0A7200C59C1F002100F8FD
S11304400698820C01B9911004D8047100B900C255
S113045000000200069872040040207100C0F01EE3
S11304600021041120D91471076101D9E0728110AF
S1130470076001D8D8728CB864780698080300C560
S1130480AC1F0021541500C01C510840069888096F
S1130490212D0698C80C00C5B01F002100F806984D
S11304A0C809811108D90C710698D60420B802A88D
S11304B000F80698080300BD0698220288B8477819
S11304C0457800B8447800C5B41F0021541502983B
S11304D08410B110076001D80A7108B87F78020C43
S11304E07E780698C8090698BE0901F8911010D8BC
S11304F0467106983A0E0698480E0698E80E00C50E
S11305001C510840541100C5305008405412E825CD
S113051054151159112D06760122212D00C1FC1EFE
S113052000211411112DD07518B875788CB8447841
S113053001B802A800F8B110076810D8307100C0E3
S11305404810084000C300000840311460242824E7
S113055044113411076101D9FA7144122810076259
S113056028100762281007622810E8700298E40D2A
S11305700C700698360B11380472076A00BB00C170
S1130580001F002100C440510840141120391C727E
S1130590417B811220DA1272007C00C46C50084046
S11305A000C200000101281400A00698CA0400C279
S11305B0F01E0021241240DA0C72617B811220DAD1
S11305C00472007C88BA527A00A088BA727A8112C6
S11305D004DAFC7200A088B86B7800C0640008409C
S11305E02F7800A00763076390B9637900B920DB13
S11305F0227100C2AC0008400E7A02EC00C909B8AE
S113060001D9447208D9407110D904722E7AE031AC
S1130610076102EC00CD114502EC00CC01DB067150
S113062002981208411103B804D91C7207319112BF
S113063010DA087102DD10721C7002B80698DE111F
S11306403038127208B80698701000C024000840B0
S1130650207800F802EC00CA05B840DB127120DAF9
S11306600E7110DAE27201DA0A7100B8247023DA2A
S1130670D67202EC00C8911110D9167100C1F81E8F
S11306800021141111500A7108DB06720AB8B870FF
S113069007689111173111402111C031114001191E
S11306A090B820DA04716178411108D90471627834
S11306B020D904726578273123DD0872C0DA047109
S11306C0607803B8411107310872A1152035C07153
S11306D002DD2872A11120D9B67102D91E72CCDABA
S11306E0AE7206B820DB0C71026D5111FFD9A072F5
S11306F00765054D9A720298120821114049C0D924
S11307003E71A031411540350165514103610763D4
S113071008DA1E7204DA28721049A115023506712E
S113072002DB0E7201340A7101DB147190B8677830
S113073000C00D0F0C0D0698E01101D8087207B81F
S113074002984605CC32204A00C005170850069886
S1130750E011113001420DDA6871208800C1DE1BFE
S1130760250180BC04DA107208DA0A7200C1208400
S11307701000E024A024FFBB07634143016401DAB5
S113078006711E49024B00C0481F00210763381040
S1130790BC2002DA127100B9FF21A11380DB0871B9
S11307A000C100FCFF01181002989E0700C3F01E50
S11307B00021341080D84671EFBA0698600F009279
S11307C00362DDDA9272A11101D9327100C23810CC
S11307D0084024120423281302EC00C804D916711B
S11307E004BA183008710060FD20012A02EC00C828
S11307F0FF22FA7604DC067218B8737890B843784E
S1130800029812080698C80900B8011A9110173006
S1130810011900C2020200000698700404D906718E
S113082001B802A800C0F01E0021041380DB067189
S11308300298E40401DB5E7100C24C1F0021241104
S11308401114FF3402EC00C8FF24FA7607610698FD
S1130850EE11036111380F300361111401114110BD
S11308600698EE1101D8087203B8029846050422CE
S113087002DB16712410112811280698021200C2F6
S113088018000840FF200812411007600698EE1176
S113089001D8087120BC10DB06720298120800BB54
S11308A000C1481F00211415C021112C5112076AE0
S11308B00F320E7140885114069868084143009421
S11308C051120765036A0F320E71411151140698D3
S11308D06808036C41430765513B00C1041F0021B4
S11308E01411111231100F30127100BA046101D8C1
S11308F00471114200600FD8F472311002601E308E
S1130900047201B8003A087204B8029846050298C5
S1130910AC0600C1306108401411076180D91A7116
S113092002EC1DB002EC1DB1015811288020E0201A
S113093008759112084A211900C0541F002104119E
S11309400F3103DD1A7200C000600840041007D89C
S11309500E7200C01040084004B9181000F8069840
S11309605E0F00B8477800F830885088FF3408716B
S113097002ECFF24F87002EC00CD141001BB5150BE
S1130980FFD8047131440760006B10DBF27104215D
S1130990FF22E4720F4C0095009300A0B11001D81F
S11309A0047200A000C0287008400411108800C11F
S11309B0001800401810442004111088A8200411C5
S11309C010884CBA757A18103DB11088F4B8427882
S11309D044207278D8207378E82073784FB200C42A
S11309E0FFFF8080413A4FAA01BC016441130763B1
S11309F000C06C70084003B918100110011001B94F
S1130A001810011001100110011098200411076141
S1130A1001B80160003A0471044904D904724152D6
S1130A200760003A0471084908D90472315204601D
S1130A30003B0E7200630064314241424FAAB2701F
S1130A404FAA44B801685378F8B8537840205278D4
S1130A5000913DA9009100C0147008401810009145
S1130A60582018100091BC20181000A040240664DF
S1130A7000C0FFFF0000013C1DB0022001584028C7
S1130A8006751EAC01EC00A000C2185008402411E9
S1130A901DB4111324113051F871066C4024041054
S1130AA00158112800C3901F0021341106981A120E
S1130AB000B88020013A0662215A412A00A000C2EF
S1130AC000010840317A00A0009000C6C01F002138
S1130AD000888CB8707801B007680F305CB11113CE
S1130AE00F330111C0480698200B0698C40400C4B3
S1130AF05C1F002103DD087214BA281400A000BA98
S1130B0003DF227100DF06722814311953B080BB51
S1130B10006B30380A7109DD06710298760F8CB8C3
S1130B20507800A04413281441150698360B006031
S1130B30B83000C4E010084044120762013221407A
S1130B400824287CF8255412F03240DE0472404810
S1130B5004DB08720DDD0C72044BEF301448069868
S1130B60BE090088811140D91E72B1123032CF4AB9
S1130B702138B1D8127208D8067104D80A719C249D
S1130B80D424237C347098244412FF32C322047585
S1130B9080B8D82481D8247140D90472237C084BAE
S1130BA004BA80DC067180D8367206B904A901D86B
S1130BB02E7264242824307C4E7008D80C7107BA35
S1130BC024D8047106BA187004D80C7101BA40D83C
S1130BD00E7102BA0A7005BA20D8047203BAE0246E
S1130BE0441140241814076118149111183111424A
S1130BF000C100600840141110D90471404A20312A
S1130C001142281408140090308802480698BE0F38
S1130C10009308DB047100F800A05CB00F3000A062
S1130C201088B111076980D90A7100C18000084099
S1130C300811009100A000C400010840441000A065
S1130C4000C020300E40041104101050F47200A0B3
S1130C5000C028400E400413315107610C3107696C
S1130C601153381000A00698960C00C0F41F002100
S1130C7004110698500B217A237A00C30000100057
S1130C800698900B00C0701F00211DB1181000A021
S1130C90511400C0B81F00210410012C0A7500B8BB
S1130CA026A806986C0900C06C1F00211DB11810FD
S1130CB028B010B9115911380EB9114028A880B8BC
S1130CC000C144300840081100C1F01F0021141075
S1130CD0303B06710760076000C4083008404411C7
S1130CE01150FF30015118146FB8076826A8217AF3
S1130CF0050C21102020267800C063EF000031404D
S1130D0026A8050C20EC247A20EC217A184826A881
S1130D1028B00AB901510F31115028A8050C207AC6
S1130D2020EC0F0C98B846784178B11080D83E7109
S1130D3000C04C30084000C16D01000018100D0EB9
S1130D400D0E00C0703008400411303112710820BB
S1130D5025782478960CF82004113031F272DC20C6
S1130D6000C106000000181000B918100698400BC6
S1130D7000C2601F002124100151FF3111500812DC
S1130D8000A00698960C00B826A800C0741F002185
S1130D901DB1181000A030B840780DB101D9FC7213
S1130DA0427800C074300E4004114CBA407A1810D6
S1130DB0EC2004115C7A1810A4BB707B4E7B4F7B33
S1130DC000C20430084000A00698960C217A227ACA
S1130DD000C0801F00211DB1181000BB0698900BA5
S1130DE0A4BB00C040300E400411033101492872F5
S1130DF0B112076207623020041121510F311872B9
S1130E006E7B6F7BF02004114CBA7C7A181014208E
S1130E100411607A1810B11002D81071707B30B8C8
S1130E20627860780DB001D8FC7100C0F8600840A9
S1130E30041101D90C7100C01800084002B918103F
S1130E4008B86E780EB84EB110D90C723EA8140CC6
S1130E500FB83EA8107044A8140C01B800C1AC30FF
S1130E600E40081100C077801F003DB201423DAA28
S1130E7000C0FFFFFFFC013A3DAA140C00C077E05C
S1130E801F0001423DAA51B801687D7808B87E78F8
S1130E9000B906983A020698CA0406989C0806986F
S1130EA0C404511406986C09F4B845780A0C00C0BF
S1130EB07C1F00211DB1181002982E0251B8016840
S1130EC05D7800C00000000344A83EA800C1AC3017
S1130ED00E40081110B807683DB101393DA908B8A2
S1130EE06F7800A001F8541000DC12710114069808
S1130EF06C0918B8707800B8417800F806983A0E72
S1130F00008800C5601F002154155112FF35076287
S1130F10FF320698400B015951290475115900906C
S1130F20212912750698480E0698E80E03D8047213
S1130F30FF0FCE7018B8727800F800C0F41F0021BB
S1130F40041000BB1DB400A001D8047200A000C0AE
S1130F500470084004108020FF3006720298E40EEA
S1130F6000DF0672011316703111016B1159112B38
S1130F70016300C1FF070000113B012B00C0880181
S1130F80000001583128087605B86EBD2870E820A5
S1130F90087605B8C8BD1E70DCBDDC20067606B830
S1130FA01470F020067607B80C70E820067608B8AE
S1130FB0047009B800C10060084014122C210732E3
S1130FC0FE2216760768036800C2FF0FFFFF1414A1
S1130FD0213C0144481150BD4C2114122155FF35C8
S1130FE05152281101B800A002D8047200A006983A
S1130FF06C091DB42824408800C000600840041017
S11310000730FD20547500C00870084004100760C4
S1131010FF3080DC447106983C12015900C3EC1F78
S113102000213415504532715413311006983C1286
S113103011280A75042554155045EE727FB90661CE
S113104000C01C6008400698CA0404155153113BA3
S1131050315558100698C40402B8009400A0EBBAA5
S113106000C05C1F00210411113A10D9067118B98F
S11310707479281000A009BA0698360B00C46400DD
S1131080084091152138267188BB0435127208D89E
S113109004716C7B04D804716A7B2F7C107008D8AF
S11310A004716F7B04D804716D7B217C04DA0A72AD
S11310B00698941104BAC2700698500B00B8B11186
S11310C0076940D9067202986A1000BC08D94071B9
S11310D0202400C160600840111200DC0C71A022C1
S11310E0241210DA10710C70BC222412076204DA84
S11310F004710421141200C180000840320C28112C
S11311000762281107622811076228114B0C00C1DD
S1131110541F0021141200DC1A7120D8067101B882
S11311200C70F0DA0C720CDB087102B806987810B7
S1131130482400C380000840FFB801200421141192
S113114011410871014118130824014200C13830CB
S113115008401411014100C0006008400410303000
S1131160016801411813281348138CB8507800B84B
S113117000C1541F0021141203682150F0300152A1
S1131180281100A064BC066C415C512C06986C09C3
S11311905088069894000095B110076820D82071F3
S11311A008B86578911004D808720698D60400F837
S11311B088B86E7800C064000840217800F808B848
S11311C06C7820B85A7859785B7800C0F4400840AD
S11311D07878797800C0E81F0021041040A846A858
S11311E04EB010D844724DB100C09FFFFFFF1138BC
S11311F040B102D90A72604804BB415408702048C7
S113120002BB02BC4DA8F8B87078190C3EB141413C
S11312103EA9F4B973797378717800C4F840084032
S113122000C200410840227000C20000010044AA2C
S1131230230C00C200000B0044AA00C41041084063
S113124000C21841084004BB587C050C597C0C248E
S11312500F0C2FAB050CB11008D81471647A657AA1
S11312601CB879787B7820B879787B78607CF42412
S113127041130698BE09511406986C09727B53B841
S11312800168050C687840EC00C0781F00211DB18E
S1131290181000F8015053A800C0B86008400411A9
S11312A00761076180D9047240EC00C4F84008402B
S11312B04EB010D80471182441130C23527C407B87
S11312C011512FA9050C797C0A0C00C00000010201
S11312D00814787C050C507C08B86D7800A011596E
S11312E010D906710760076008D90471076004D932
S11312F00471036002D90471016001D904710060B2
S113130000A010880411023006710761076100C053
S1131310FFFF00001138009100A000C2FFFF000091
S11313202138213900BA01D806710148112A00690F
S1131330006001D8F6720138F67200A08020FF30F8
S1131340FF48812000A0000092040000012100F069
S11313501F029140DFF8142705E0012100F01F026D
S11313609140DFF80C27400942F82010704780B5FF
S113137000F05AFEDFF8FC160968090E01F00F01AF
S1131380032907D1DFF8F0160A6822F0F00242F0D0
S1131390E0020A600121DFF8E4261160BDE80240A2
S11313A000F046BEDFF8A02A1168D368194021EA8C
S11313B000009060084670470422C900002814BF4A
S11313C0DFF8BC06DFF8940A02FA01F10160704705
S11313D00120704710B5DFF8884A0123237000F01C
S11313E05EFE0020207010BD70B500F01DFEDFF819
S11313F09416DFF89446CD78D1E902232E00DFF865
S11314006C1A04BF4FF41056324219BF10260E60F6
S1131410102626600DB9D20502D520220A6001E00B
S113142020212160BDE8704000F002BEDFF85406C0
S113143000210171C17811B10021C170D4E7704756
S113144010B5DFF84046207978B1012001F07EFD27
S113145058B9FFF7EBFFD4E90201BDE810400022C0
S113146000F4805001F00001B4E710BD10B503682A
S113147083EA010424EA020200F180641340236039
S113148040F8042C00F1C0601140016010BD70B53B
S113149004460D461646FFF7A7FF4FF4004114F02B
S11314A0AA6F18BF48F20201B00748BF41F40051C7
S11314B00022DFF8D805FFF7D9FF0021200448BF38
S11314C04FF48051E00348BF41F48071E00648BF07
S11314D041F40051A00648BF41F40071600648BFC2
S11314E041F48061200648BF41F400610022DFF826
S11314F0A005FFF7BBFF05F0040300210025AB4264
S113150018BF4FF48021200548BF41F480316004A6
S113151048BF41F48011A00748BF41F40011A00363
S113152048BF41F40021700748BF41F00401012283
S1131530DFF86005FFF79AFFDFF85C15F00748BF96
S1131540DFF85815A00048BF41F40011600048BFFF
S113155041F000710022DFF84805FFF787FF002102
S1131560E00748BF01210022DFF83805FFF77EFFBE
S1131570DFF83415600348BFDFF830156007BDE8B5
S1131580704048BF41F480614FF4A022DFF8DC09C9
S11315906CE710B500F048FD04461C20FFF7DDFEA3
S11315A00820FFF7DAFE0120FFF7D7FE0420FFF73B
S11315B0D4FE0520FFF7D1FE1D20FFF7CEFE072045
S11315C0FFF7CBFE0620FFF7C8FE2020FFF7C5FE7D
S11315D02046BDE8104000F02BBD2DE9F04702EA9B
S11315E00009089D099AC643CF43002D03EA010A66
S11315F005EA0208DFF88C442CD1002948D10028E0
S11316006ED001280ED0042842D100F00DFD00F068
S113161069F8002082450CBF814501200121FFF7B4
S1131620CBFE33E000F000FD00F05CF800229245B0
S113163008BF9145DFF8380806D001210160012078
S1131640DFF83018086021E0DFF85C280121116020
S113165001601BE00022914204BF9042012D17D18A
S113166000F0E2FC05462069400848EA4000206199
S11316704FF48061DFF83408B8F1000F19BF01603E
S1131680DFF82C08DFF8F02811600160284623E019
S1131690FFF77FFF00F027F82269AA4348EA020215
S11316A02261FFF7F4FE00F0BFFC04461C20FFF7A4
S11316B04DFE0820FFF74AFE0420FFF747FE0520F1
S11316C0FFF744FE1D20FFF741FE0720FFF73EFE13
S11316D00620FFF73BFE2046BDE8F04700F0A8BC1B
S11316E0BDE8F0870546D4E902013040394040EABC
S11316F0090041EA0A01C4E902017047DFF834082D
S1131700006810F0A00F0FD1DFF82C180820086033
S1131710DFF828180868800547BF0220DFF8201882
S11317200220DFF858180860704710B5044601F02D
S113173010FEFFF72EFF00F01FF9012001F0B7FFA4
S113174004F19401DFF8FC0701F0D4FADFF8301853
S11317500120086001F0FAFF02F054F802F02AF9BF
S113176004F1340002F05FFA4FF44001002002F06B
S11317706EF84FF40011012002F069F802F069FCE0
S113178002F01DFD10B9142102F046FDBDE8104021
S113179002F038BC10B5DFF8D847206810F0070F06
S11317A008D1DFF8D017086820B1002001F0CEFB83
S11317B0401E60618020DFF8CC170860DFF8C8079E
S11317C0016821F04001016010BD10B500F02CFC4F
S11317D0044600F018F8002802BFDFF8B0070068DC
S11317E010F0060F0AD1FFF7D5FFDFF84C170120E0
S11317F00860204600F01CFC002010BD204600F0CC
S113180017FC012010BD032002F01BB880B50100B5
S113181003D0DFF88017401E086000F005FCDFF8F5
S113182068170A6822F040020A6000F001FCDFF841
S113183010170220086001BD2DE9F84F8046894643
S1131840924600F0F1FB83465FEA0900894CDFF819
S1131850405725D0DFF84007006800F00F00032848
S113186018BF092807D1DFF834070068C003F1D492
S1131870206F0D28EED300F06CF8DFF82417012058
S113188008600420286001E001F078FE2068000E62
S113189010F00F00F8D17848016821F0F0010160E0
S11318A0A0202860FFF7AFFF18B100F002F900F0A4
S11318B04DF801F0D4FFDFF8F465DFF8C0760020BE
S11318C0F06000F046F8DFF8C006016841F040011E
S11318D00160FF2038604FF4807060600420B8F12C
S11318E0000F286007D0FFF742FD01F0FEFF202023
S11318F0606000F02BF8B9F1000F22D0504600F0E0
S1131900BEFA0120BAF1000FF8601AD0DFF894068D
S113191041680160E069A061DFF88C0641680160FC
S1131920DFF8880641680160DFF8840641680160D9
S1131930DFF83C0541680160DFF878063060FFF7A6
S113194075FD5846BDE8F24F00F072BB042001F06B
S113195068BF10B5DFF82C4606E0DFF83416042023
S11319600860022002F012F804202060DFF8C405A9
S113197000684003F1D410BD80B5DFF83C0601686F
S1131980DFF8380601F00EFD6421DFF8FC0502F0F3
S11319904FFCDFF8A0050021016041608160BDE8D3
S11319A0014002F049BCF8B5DFF81416354C0A5C66
S11319B0DFF8F864130005464FF400671CD0032DCC
S11319C008BF3760521E0A54D2B25AB9032D05F12A
S11319D00900DFF8F01509D10002227840F0010077
S11319E012B10860002016E0F060FBE7042DF9D185
S11319F0000640F48030F4E701F013FF032D07D113
S1131A00DFF8C41541F61F70086037600020EBE76B
S1131A10022D02D101200021F4BD042DE2D100F0F9
S1131A2048F801F01CFF00F0FFFA05466078002634
S1131A3008B1FFF79CFC012001F088FA0D4F002843
S1131A40386804D1000E00F00F00032802D1A078FA
S1131A502071012600F010FA002EC3D10020E0709E
S1131A60FFF7C2FC4FF48050D5E7000000E100E02E
S1131A7080E100E004400840541F00212400084095
S1131A80EC10084628170020944008446C000840D5
S1131A900C6208402040084004185000041C500008
S1131AA0685008403C700840090A0A090D0A0A09EE
S1131AB00024032001F0B5BE2DE9F04FDFF80C053A
S1131AC0DFF8C8A483B00168C2681140009100998E
S1131AD08160DFF8FC040168C26802EA01048460E2
S1131AE0DFF8F0040168C26802EA010585604FF678
S1131AF0FF70FFF757FC0646DFF8DC040068C0F30C
S1131B004070002801BFDFF8D4040068C0F34070BF
S1131B1000281FD000F088FADAF8001011F0060847
S1131B20DAF85010DAF85C2002EA010718BF4FF027
S1131B300108DFF8AC143940CAF85810790704D505
S1131B40DFF8A0140A78521C0A7000F071FA8DF8BC
S1131B50048002E08DF80400002700984FF000088C
S1131B600028C346C1463ED00099DFF8C8030904E3
S1131B701CD50168DFF81824DFF8143401F4E051AF
S1131B801160A0221A601022DFF8F0331A6011B934
S1131B904FF400280AE0CA0448BF4FF0007805D487
S1131BA049054CBF4FF400184FF400080099890709
S1131BB014D50068DFF8D81310F46040086008BF3B
S1131BC048F480180AD0010448BF48F0806805D45E
S1131BD080044CBF48F4800848F080780098800462
S1131BE048BF4FF00209DFF80004044235D014F472
S1131BF0206F07D0002000F042F9062100F032F9EE
S1131C0024F4802414F0090F0AD0DFF8E013202014
S1131C1048600120DFF8D8130860082100F022F999
S1131C2014F0106F0AD0DFF8C4132020486000219C
S1131C30002001F094F9092100F014F914F4202F84
S1131C4007D0002000F01BF9072100F00BF924F461
S1131C508024E00348BF01F05BFA60070ED5DFF88B
S1131C60940300684FF4005128B1DFF88C0301603D
S1131C7048F4802802E0DFF884030160600548BF6F
S1131C8048F0040860031CD501F01CFA401E062825
S1131C9005D8DFE800F0080B080E11141400032126
S1131CA000F0E0F80DE048F400580AE048F48068D9
S1131CB007E048F4007804E048F4807801E048F054
S1131CC00808BDB1E80448BF48F40048E80548BF27
S1131CD048F48038A80448BF48F01008A80548BF55
S1131CE048F02008680548BF48F04008280548BF68
S1131CF048F0800836B3B00148BF49F008097001C4
S1131D0048BF49F01009300148BF49F02009700369
S1131D1048BF4BF0040BF00348BF48F40068F002DE
S1131D2048BF48F48048B00248BF48F00208300376
S1131D3008D500F0D9F802281CBF0328072801D1D0
S1131D4048F40038002F5BD0380506D50320FFF790
S1131D502AFE48EA00084BEA010BB80104D52B20FF
S1131D6001F0CEFC48F0804817F4E00F05D1F804E8
S1131D7036D59DF80400002832D0B80204D52920B5
S1131D8001F0BEFC48F0005878020BD5FFF7DEFDE9
S1131D90272001F0B5FC00F059F84FF48000CAF890
S1131DA058001AE0F80207D5FFF7D0FD282001F00B
S1131DB0A7FC48F000681CE0F8041AD5FFF7C6FD3C
S1131DC001F093FDDAF8500010F4A00F11D12A208D
S1131DD001F096FC86490120086048F0805808E02C
S1131DE0F80406D50420FFF7DEFD48EA00084BEAB4
S1131DF0010B780504D50220FFF7D5FD40EA090957
S1131E007F48016901EA0902D0E9020108EA0000F9
S1131E100BEA0101FFF7DEFA600303D501F06DF967
S1131E20FFF70EFB6EB1B00148BF02F09FFB7001DB
S1131E3048BF02F0B5FB300103D5BDE8F74F02F00F
S1131E40B0BBBDE8F78F0000144008405049A02003
S1131E50086010204949086070470000EC100844ED
S1131E60FD170020002002F0D7B900009440084676
S1131E70387008403C700846284600F0D9B838B598
S1131E80044600F0D1F8054601F07BF814B1FFF7E1
S1131E90CDFA04E05B48007808B9FFF7D1FA284688
S1131EA0BDE8324000F0C4B83C70084464500840B7
S1131EB06850084600E6FFE5FEE5FDE510B552482A
S1131EC0FFF770FA0446E00703D500F00DF800F0C0
S1131ED0A1F8600707D54A48007CBDE8104000F02F
S1131EE0040200201CE010BD40480068000E00F011
S1131EF00F007047E0E580B544480168C2681140AE
S1131F008160C8070BD53E48007A122100F0010019
S1131F1002F082F9BDE808400022012000E001BD82
S1131F200021FFF757BA3A480168C268114081603E
S1131F30704700008840084008400840001F002106
S1131F4000400846FD16000038B504460D46FFF76C
S1131F503FFA00281ABF0C490868D4F884002840C6
S1131F60A84201D1012032BD002032BDEC1008404E
S1131F7004000840501F00216850084400400844F1
S1131F800C40084488400846F01E00210C500840CC
S1131F908840084418000840704108408C400840BC
S1131FA00C40084668000840086208407830084041
S1131FB0E81008405000F00248130000000100003F
S1131FC05C1700206C5008466C50084460000840C0
S1131FD0E01008400062084000E300E000E200E096
S1131FE0FFF7BFFFFE170020090A0B090440084051
S1131FF028100840B404024324100844241008465E
S113200028170020FD1700200000FFFF3070084053
S11320107030084002490120086002490860704796
S1132020204008441C400840EFF3108072B670470B
S113203000B962B670478268521C8260426832B14D
S11320400268531C036011704168491E4160704767
S1132050DFF8F81504220968C00002FA00F008400D
S113206018BF0120C0B270470422C900002814BF61
S1132070DFF8C405DFF8D80502FA01F10160704702
S113208001207047704748B1DFF8B0256FF0FF01B9
S11320901160000ADFF8C0150002086070472DE9DE
S11320A0F04304460D469046DFF89405DFF8947536
S11320B0D0F80090DFF89005042104EA000205EA54
S11320C001030020834208BF824283B009F10C0659
S11320D045D0DFF888050068210348BFF861E102B4
S11320E048BF3862E0000BD5DFF87415086800F0CB
S11320F07F40B0F1007F03D1DFF86815022008604B
S1132100E0071FD500F023F9002200F0ADF901200B
S113211001F013FAF0800021012002F0C6FB317DAA
S113212009064CBFDFF84015DFF864154FF40010C2
S113213008607869FFF7A7FF00207861307840F0E5
S11321400800307005F0040300218B4207D0012100
S1132150304602F0EBFC25F0040504430D43D6E9B8
S1132160140104400D400020854208BF84420CD075
S1132170B96822462B46484688474FF0FF30F8613D
S11321803862200744BF0020B8615FEAC8700BD5ED
S1132190F9680020F86001203870080004D038691C
S11321A003B0BDE8F0430847BDE8F78310B5044623
S11321B0112002F077FF042802BFDFF8D80400687A
S11321C010F4403F01D0022010BD2046FFF7ADFAC5
S11321D0204600F049FDDFF8C014602008600020AC
S11321E010BD2DE9F04184B004460FF29800006858
S11321F0029004F10C0808F108070020F8600D466D
S113220008F1480000210176C0E90211B96239875A
S113221079876421B987F987018041808180C180F1
S11322204FF6FF7038804046FFF72AFFD0B1404692
S1132230FFF7BCFF060013D102A9404600F02CFBB7
S11322400646FA684FF0FF31404600F068F900F0A6
S11322507EF84FF08052042310460421FFF7BDF9A5
S1132260300003D1204603F007FA0646280003D0C5
S1132270300004BF2046A847304604B0BDE8F081D2
S1132280000000000000000098B504462078810793
S11322902ED5E16A61B300F0FD012170E06A406966
S11322A0006810F1010F03D0BDE8924003F0FAB9C1
S11322B0D4E9142303F004030027BB4203D141F003
S11322C00200207091BD4FF48031204602F02EFCB4
S11322D0D4E9142302400B4008BFBA4208D0A4F149
S11322E00C0001B0DFF85C138968BDE89040084732
S11322F091BD2DE9DC430446DDE90867D4E9140106
S11323009043994306EA020807EA030940EA0800F1
S113231041EA0901C4E9140122F0010823F000098B
S113232000F052FA80B100F012F807EA090106EA57
S1132330080040F0805241F0040340464946FFF74C
S11323404CF92046FFF7A0FF0020BDE8D68300200B
S113235001900090704700680100DFF8E81208BFA0
S1132360DFF87404886070470023002100220328EA
S113237007D8DFE800F00302070A01231846FFF735
S11323805BBA704701230121F8E7012301210122EF
S1132390F4E70000DFF8BC020068000E00F00F0054
S11323A0401E0B280DD8DFE800F006060806060CD0
S11323B006120A12121202207047032070470520E9
S11323C07047DFF88404006810F0060F01D0042081
S11323D0704701207047DFF82C05006800F0A0006A
S11323E0401E8041C00F704770B504460D46164626
S11323F0FFF7F1FF08B9022070BDA9B2204602F030
S11324008FFA010020D13146204600F01FFA204601
S113241003F054F9B8B1204600F0D3F998B14FF461
S113242000112046FFF790FD032500B1042529463D
S1132430002000F06CFD10F1010F01D1032070BDEC
S1132440DFF80C150860002070BD10B500F007F827
S1132450040008BFFFF7B9F9204610BD1D4689B234
S1132460C2E70C46FFF70CBE002301200021FFF752
S1132470B4B880B50020FFF7C9F9002002BD0128D7
S11324804FF0605109D00AD3032803D007D24FF08C
S1132490C05005E04FF0005002E0084600E0002084
S11324A0DFF8EC2111607049DFF8B02608604FF4C2
S11324B000100860DFF8BC06016821F0060141F055
S11324C0040101604FF0805111600421416100203A
S11324D07047DFF88C26062111600021DFF884267E
S11324E011604FF08051DFF8882611604FF400121C
S11324F0007DDFF89C11000646BF5B4802600A605D
S11325000A604FF0605000F0E1BB002819BF0220C0
S1132510DFF864160220DFF86416086070472DE9BE
S1132520F84F04460D466069164605EA060AA843B4
S11325304AEA0000606100F047F9002878D02A07D1
S1132540DFF83806DFF8301605D5320747BF082212
S11325500A6008220260EA0705D5F20747BF012096
S11325600860012101606807DFF82481DFF8F89032
S11325700DD5FFF7EEF94FF4007071074CBFC9F8A1
S11325800400C8F80400DFF8F81504200860A80760
S113259004D5700800F00100FFF7B7FFE806DFF884
S11325A0E47504D5F0064CBF00201B20B862280651
S11325B0DFF8A0B01DD531064FF4001017D5C9F8C7
S11325C00000FFF731FDDBF80010090E01F00F01E8
S11325D0032907D1DFF86C120A6822F0F00242F0F6
S11325E0E0020A6001213960FFF722FD01E0C8F82A
S11325F0000015F0600F1BD000210AF06002202AB1
S1132600DFF884050FD0402A0AD0602A0CD1226B4F
S113261052B11368022B07D3516941F0010103E061
S113262040F2011100E0012101608020CBF8040098
S11326300020BDE8F28F0000EC1008461870084432
S1132640A81700205406002001001810EC100840C0
S1132650EC10084404400840187008461C51084017
S1132660001F00210040084618600846016B61B154
S11326700A68032A09D3486A0B6AC2B2000402FB3F
S113268003F1000EB1FBF0F070470C3803F019B8F9
S11326901860084404300E404400084070B500F04F
S11326A00AF8002628B104F13401284601F0E0FDBF
S11326B00646304670BD04460D46FFF7E1BC70B5D2
S11326C004460D4694F86800032801D1022070BD29
S11326D0261DB16A357081B1204602F005F940B972
S11326E0B062204602F0F2F90146204602F018F9E1
S11326F003E0E9B2204600F002F8002070BD10B5F6
S11327000C4690F86810032901D1022010BDFFF790
S1132710B7FC10B1E0B201F03DFE002010BD80B561
S1132720084601F0FAFD002002BD01F0FEBD2DE9CE
S1132730F04104460F46E069012815461E463DD087
S113274000F042F8002839D0FFF724FE012803D016
S11327500121012002F0A9F8A889D5F804803F1AC4
S1132760BFB2402F06D3A968B809484308EB8018C4
S113277007F03F0701F026FB404507D101F025FB98
S1132780A968884204BFF6B2002E10D0A96840465A
S113279001F04AFB08B1022011E001F02AFB0028F5
S11327A014BFDFF8E804DFF8E80401F02FFC20464A
S11327B0FFF76AFD0121F8B201F0A1FB0020BDE89A
S11327C0F0812021FFF7C0BB2046FFF759BC0C461F
S11327D01546FFF755BC00008520000000280CBFFB
S11327E0DFF85402DFF898034FF4807101607047FA
S11327F030B50021DFF8A024DFF8A03403EB810317
S113280003F180654FF440642C60040004D1545CEF
S113281003F1C063A4021C60491C0229ECDB30BD37
S113282010B50446FFF795F8002C14BFDFF87014B8
S1132830DFF870144FF4806008600420DFF8401360
S1132840086010BD541F00210C50084038B50446E0
S11328500D46680800F00100FFF7CAFF05F0040008
S1132860FFF7DEFF002005F01802182ADFF83814FD
S113287007D02A0748BF012003D4EA0648BF40F224
S1132880011008602046FFF79CFF20B105F001000D
S1132890BDE83240A2E731BDF8B5FFF70CFF78B3CD
S11328A0A878E978884201D00120F2BD6878010057
S11328B003D12046FFF70DFE01E0FFF7E0FDA87805
S11328C0DFF8E86340F6FF7700280EBF3760204644
S11328D000F00FF9E87840B9DFF89C123763602004
S11328E008604020DFF8981209E0DFF890126020B9
S11328F00860204600F013F94020DFF898130860C0
S11329000020F2BD8840084030B585B0FFF75FFF76
S1132910C8B100226946012000F00AFCA8B1BDF844
S11329200210AAB28A4228BF0D46DFF884138A69CE
S1132930904204BF00208861ADB22A46214601209E
S113294000F079FA00E00025284605B030BD00000B
S1132950F81E002138B50446154600F00CF80100B5
S113296008D1287A28B12046FFF780FE294601F0D5
S113297099F9002032BD3EB504460800154618BF3B
S1132980002D06D0032806D20022002100F0D0FB3F
S113299008B901203EBD00680090BDF800209DF8F4
S11329A00210120401F0070002D4821F022A01D38C
S11329B002203EBD07280CBF01200020287308090F
S11329C000F001006873C1F380102874C1F3C000E3
S11329D06874C1F34010A87400F093FDC2B202B34E
S11329E0BDF80000831F9BB201A9012000F049FA41
S11329F001A841786A7C4900E9739DF90410A97320
S1132A00C3788178007941EA032141EA00409DF8C6
S1132A10091040EA016104F1340001F077F92860FB
S1132A2007E00020E8736FF07F00A873002028609F
S1132A30287200203EBD000088400846012000F0B6
S1132A4085BAF8B50C469BB200F023F806DAB3FA5F
S1132A5083F1D1F1190148BF002507D400F019F81A
S1132A60BABFB3FA83F1C1F1190506250121AB1DE3
S1132A7001FA03F6B7B291B28F4288BF0F46FFF74F
S1132A80FFFA20B1EAB23946204600F053F9B0B259
S1132A90F2BDB3FA83F1C1F119010629704738B5C3
S1132AA00C46118800F01FF806DAB1FA81F3D3F16D
S1132AB0190348BF002507D400F015F8BABFB1FACE
S1132AC081F1C1F1190506250121AB1D9940118041
S1132AD0FFF7D6FA28B1E9B2204600F043F9002006
S1132AE032BD022032BDB1FA81F3C3F11903062BC2
S1132AF0704780B5FFF7C4FA80B10020FFF7A8FA49
S1132B00DFF8B021012111604FF40051DFF8A82152
S1132B10116018B1BDE80440002125E001BD10B5E5
S1132B20FFF7AEFAB8B10120FFF792FA044601218B
S1132B300020FFF799FADFF8781100208861FFF789
S1132B409EF9DFF878114FF4005008601CB1BDE81D
S1132B501040012108E010BD000000009440084628
S1132B6070000844840008400120FFF77DBA00008B
S1132B709440084470000840440008464400084457
S1132B808840084424000840641F00212DE9F041D6
S1132B9004468846FFF774FA0025002855D0DFF86C
S1132BA020713E68414604F1340000F041FC38686D
S1132BB020632046FFF75AFD00F02EFF0020DFF8C7
S1132BC0D810DFF8D82052F82020920A02F003022D
S1132BD00A54401C0228F4DB20894FF6FF7290420D
S1132BE005D04A68100002D0218920469047206B06
S1132BF0B04225D005460021002D1EBF28680028BC
S1132C00A968A4F10C0002F05EFD002D1CBF286829
S1132C10002801D0286918B900220021002602E00A
S1132C2042680168068904F1340001F000F80500E7
S1132C300BD1314604F1340000F048FF00F020F8D5
S1132C40207840F0020020702846BDE8F0810000A2
S1132C5010B5FFF706FC20B1E0B2BDE8104000F06B
S1132C606CBCDFF8600010BD80B5FFF709FA30B125
S1132C70BDE804404821DFF8500001F0D9BA01BD95
S1132C8004F1340000F0CFBF00F0C8BCC0CF6A002C
S1132C90E067350088400846B0170020A0000840CF
S1132CA01C6008461C600844681F0021241008406A
S1132CB054060020281008402410084454100844E6
S1132CC0F81F002100FEFFFF041F00210860002000
S1132CD070470268531C03601170704730B530258B
S1132CE0DFF8B0456843204401604260039919430A
S1132CF0416230BD80B5DFF8A025906003201080CC
S1132D000023002050800A464FF400500090002118
S1132D100320FFF7E3FFDFF88415F0200860A0200C
S1132D20DFF87C1508600120DFF878150860BDE83D
S1132D30014026E138B5DFF85C45226060600D464D
S1132D40FFF772F9DFF860150A680023E360A560F5
S1132D5052075CBF04228A60FFF76AF90DB10220B2
S1132D60A06231BD80B5DFF83025506000200090AE
S1132D7040F6FF7352680120FFF7B0FF01BD000069
S1132D802DE9F04F89461646DFF8081500EB40029E
S1132D90052E81B001EB021515D2761E032E47D8FD
S1132DA0DFE806F00B08050219F8010BA86119F811
S1132DB0010BA86119F8010BA86119F8010BA861AE
S1132DC001B0BDE8F08F19F8010BA861361F19F89E
S1132DD0010BA86119F8010BA86119F8010BA8618E
S1132DE001202968AC6801F00701891D00FA01F788
S1132DF0BFB2A7F10108696808EA0400A7EB000A5A
S1132E0041F0005BB245584409D25246494602F0AB
S1132E105BFCA6EB0A0209EB0A01584601E03246C4
S1132E20494602F051FC301947EA08010840A860FD
S1132E3001B0BDE8F08FF8B504460D4616462046AD
S1132E4000F084F8070014D0B74228BF37460120A9
S1132E5000903021DFF83C0461430844BAB2C368EF
S1132E609BB22946E0B200F016F8BFB2F61BE6D1D9
S1132E70F1BD2EB10220E1008840DFF83014086073
S1132E80F1BD10B582B0144600220092224600F033
S1132E9002F8204616BD2DE9F04714468946302233
S1132EA0DFF8F01350430E1882B0306800F00700CA
S1132EB00121801D01FA00F77168BFB241F0005191
S1132EC09A46A7F10108009108EA0A003D1A009900
S1132ED0A542014408D22A46484602F0F5FB00996F
S1132EE0621B09EB050001E02246484602F0ECFBB8
S1132EF00A9850B104EB0A0047EA08010840F06060
S1132F00B16888421CBF0220B062BDE8F38770B587
S1132F100C463022DFF87C1342438E18356800F0EB
S1132F2015F8844202D34FF0FF3070BD70684FF043
S1132F30005105F00703084401229B1DF1689A40E3
S1132F40521E611892B21140405C70BD3022DFF80D
S1132F50441350430844006AC0F30C00704710B592
S1132F60412901D3012010BDDFF83843012222603A
S1132F700A4601460320FFF703FF042020600020D7
S1132F8010BD38B5FFF750F80446C948C24D0121B9
S1132F900160016300200090032305F11002002169
S1132FA00220FFF79BFE03202880002068804FF456
S1132FB0A020C0490860C04908600020E86020469D
S1132FC0BDE83240FFF734B8B7480168C90310D5EB
S1132FD04FF480318160B8480160B848016801F05D
S1132FE0FF020264C1F3072101640421016400218A
S1132FF00164704770B505004AD0FFF715F8044620
S1133000A5484288C368C2F3830100EB81011031F3
S1133010022D03D1CBB35D086D0002E0012D08BF82
S11330200D465E08B5EB460F23D10022C2608D42E7
S11330302A8842F400422A803DD102882946121F80
S113304002802D1D00F15006438892B21B1DB5422B
S113305028BF00F11005052A438002D32E883604C8
S1133060EBD48D7805F00705042D0CBF0125002550
S113307010E000F11006AB1B02F03F029A1A03881D
S113308048BF40321B1F9A42D1DB2046FEF7D0FFD7
S1133090032070BD09888A4EC1F30C01316003F02E
S11330A07F0141803163B2642DB18068010018BF93
S11330B0804700F063FAFFF787FF2046FEF7B8FF6A
S11330C0002070BD744908884A887E4B8218D21E3D
S11330D0001D9208088002F00F0201EB820280B208
S11330E010321860907800F00700042803D1764B62
S11330F01B681B03FBD4CA60704710B5664CE068BC
S113310028B1C10758BFFFF775FF0020E06010BD6C
S113311080B56E494FF4803008606449086002202D
S1133120FFF714FF3D2802D2BDE801404CE701BD82
S11331302DE9F84F04460D461646FEF775FFDFF8F5
S11331405881B8F800208146B8F80200C0F3830122
S113315008EB81011031022C0FD1D8F80C304BB997
S11331601318DB1E9B0803F00F0308EB830303F122
S1133170100405E05C08640002E0012C08BF0C4662
S113318008F11003A4EB030C00F03F00BCEB0007B4
S113319048BF403797422DDA002D08BF002E71D06A
S11331A08C42DFF82CA104D1DAF80C001FFA80FB62
S11331B006E0201F984238BF40300088C0F30C0B53
S11331C00EB1A6F800B0DAF8000000F00700012103
S11331D0801D01FA00F6002DB6B253D0701E3043A4
S11331E0ADF800000220FFF7B1FE874220DA208804
S11331F0010404D54846FEF71BFF002046E0A178F1
S113320001F007012970C0F30C00BDF80020A0EB09
S11332100B0002EA000706293FB202DB00F071F955
S11332203F1A38B2C043C00F042100F0F5FF15E087
S1133230DAF80800BDF80010A0EB0B0001EA000763
S1133240214800683FB2012F04DA000E00F00F009D
S1133250032801D1082000E000202870701E6F8030
S113326000EA0B01D8F804000844A86011FA87F0BA
S1133270864204DA701AA880D8F8040001E0AF800E
S11332800020E8604846FEF7D3FE2046BDE8F28FF2
S113329000000000001008405815002040000844B9
S11332A040000846B8100840E0100840E410084008
S11332B058100840E8100840EC1008463810084040
S11332C03C1008408410084004400840EC100844B6
S11332D03010084080B5684602F032FADFF8B802D0
S11332E0DFF8B812DFF8B822016148F2E6714160F4
S11332F04FF408610160DFF8AC02DFF8AC12416002
S11333004AF63F4111604FF0C071DFF8A02211600E
S113331000210166DFF8981201607F20DFF8941223
S113332008602320DFF89012086001BD10B5DFF8B3
S11333308C02DFF88C420168426849B10B0C1B0413
S1133340A34208BF0A600830DFF878128842F2D33B
S113335010BD10B5DFF87002DFF87042FD21016086
S113336001214160FFF7E2FFFFF7B4FFDFF86012CD
S1133370032008604FF40020DFF858120860012091
S1133380206000F06EFEDFF850124FF460700860A9
S11333904FF040706066E0674FF40010DFF83C12B5
S11333A0086010BD10B5DFF8303282B001221A6017
S11333B0DFF82C422268120E12F00F02FAD14FF0FD
S11333C00452A2670122E2678A0001464FF00450CA
S11333D002F08AF9DFF80C02E065DFF80C42DFF84E
S11333E00C0221680091AC2100F022FFDFF80002FA
S11333F0DFF8001201600099216013BDDFF8C801F5
S1133400FD21016001214160704780B502F0C1F9DE
S1133410DFF8E4110968C1F30821491CB0FBF1F09D
S113342002BDDFF8D4010068C0F308207047000033
S1133430F8B504460D460FF2DC1600E00860002DD6
S11334401CBF286810F1010F3FD055F8042BC2F3BC
S1133450026156F8211093B2C2F3074019430228BF
S113346008D300281EBF55F8042B41F8042B401E36
S1133470F7D1E4E755F8040B120F4FF0010C072ABB
S113348001F1C06301F180670CFA00FED7D8DFE8D0
S113349002F00506090C0E111417D0E7CEE7C0435D
S11334A03860CCE70A685040C8E71860C7E700F006
S11334B06DFAC4E7C3F800E0C1E7C7F800E0BEE76F
S11334C00A6802408242FBD1B9E7204601F07BF84A
S11334D0DFF82801006810F4E05F03D1DFF8201161
S11334E020200860F1BDDFF8F8000068000E00F04D
S11334F00F00022818BF032801D1012070470020C3
S11335007047DFF80001016800208A0648BF0420E4
S1133510CA0644BF801CC0B20A0744BF801CC0B2A4
S11335204A0744BF801CC0B28A0744BF401CC0B2D3
S1133530C90744BF401CC0B27047F8B50446FEF743
S113354073FD0646FFF7CFFF05462F480068C0F31A
S11335508917B80544BF2D480743FFF7C4FF00B9D6
S113356000253046FEF764FD3FB217F5007F01D118
S11335702542E4D105B9264F3846F2BD1848016802
S113358001F07061B1F1C06F02D1816BC906F6D54B
S1133590402141607047000034410840C0E6535167
S11335A0083008409C4008407A27000F28700840E3
S11335B0806D630324300844243008460080E00F03
S11335C000000840B081E00FC8400E409440084617
S11335D0D8600846944008400C40084618600846E5
S11335E004400840C01F0021E81F0021541F00218F
S11335F0F01F00213F00370010410E408460084056
S1133600106208404C0008400870084000FCFFFFAE
S113361000FEFFFF000008400000002138B504460A
S11336203B4D14222146284602F05EF83949082011
S113363008600121384801F071FB3848F8218160A5
S1133640E27A217A41EA0221A27B41EA0241416005
S11336502178012917D10221696100230721016022
S11336600422617B207B02F044F9217CE07B00236F
S1133670042202F03EF9A17A607A0123042202F0C6
S113368038F9002032BD022904D1012169610521E4
S11336900160EAE7032904D1052169610121016080
S11336A0E9E711B969610160EBE7012032BD70B54A
S11336B0044620001A4D14D0154E7168002041B103
S11336C0FFF7A3FE716800EB5100B0FBF1F0401E60
S11336D000024FF6037129607169084311490860BB
S11336E001E003202860204600F002F8002070BDAD
S11336F0002814BF0C480D484FF08041016070470A
S11337000B490968002944BF0A4908607047000052
S1133710FC160020C8400E4600350A00740008401C
S11337207C0008447C0008469440084694400844C1
S11337309440084080000840012100F01F0291409D
S1133740DFF80822400942F8201070472DE9F047BD
S1133750DFF8FC51DFF8FC012860FFF756FE4FF458
S11337607A71B0FBF1F64FF4FA707043010EDFF892
S1133770E821002312EB00205941DFF8E02102F098
S1133780FFF80400A4F58070A86204D12B21002066
S113379000F042FD01244FF47A7000FB04F2002093
S11337A0310200EB5200002302F0EAF8DFF8B071B6
S11337B080468A464FEA1429C7F800A0C7F8048057
S11337C0240626B92B21002000F026FD01264FF403
S11337D07A70A0FB0423002100FB093312EB56008E
S11337E059413246002302F0CBF8F860B96018F171
S11337F002004AF10001800840EA8170401E2863FB
S1133800BDE8F08780B51D20FFF796FFDFF854115F
S11338104FF0005008600120FFE7DFF84C1108600A
S113382001BDDFF84C2102EB001202F1806201219C
S113383011604FF4807101FA00F0DFF8381108606C
S113384070474B490001085800F00100704701F42B
S11338506001474A000141F0030111507047484993
S113386046480860704770B5064602F000F94549BD
S1133870454A0C7840490D6812680AB10D68641C09
S113388002F0F9F804F00300C6E9000570BD7CB548
S113389004460D46164600F018F80198281AF6B2A8
S11338A026B1012807DB0098401E03E0002802D55A
S11338B00098401C00900098019500F003000090CF
S11338C0DDE90001C4E9000173BD6846CBE7DDE929
S11338D0000103B05DF804EB10E000B583B00146CD
S11338E001226846FFF7D3FFF1E780B52220FFF7F6
S11338F007FF1D494FF48020086001BD10B5184A28
S11339009468D268A1FB0223B2F1004263F1FF3351
S113391001FB043202EB807010BDD0B5104A176869
S1133920526821F04046A6FB0223B2F1004263F143
S1133930FF338C0F0D49096806FB0732914288BF9B
S11339401146C0E90041D0BD0000000080E200E063
S1133950005008400011010020A1070040420F0060
S11339606C17002000E100E004500840305008408B
S113397000510840645008401850084000000101FC
S11339806C500840FE170020880B0A4330B583B002
S11339900446FFF79AFFDDE90001FFF7AFFF054694
S11339A0FFF793FFDDE90001FFF7A8FF401BA042EA
S11339B0F6D337BD50B5DFF8841383B00720086011
S11339C0FFF723FDC408DFF87823DFF878630023CA
S11339D012EBC45043EB5421DFF86C2301F0D0FF09
S11339E0DFF8681308604EF6602000F068F8DFF82E
S11339F06013404208606846DFF85813FFF78DFFF4
S1133A00019A5008002110EB843051EB94410023BB
S1133A1001F0B6FF306057BD38B50446FFF7F5FC3A
S1133A20C108DFF834030068C00B00F00100C901CD
S1133A3002000BD001F57443DFF82023DFF82043A4
S1133A402433B3FBF4F31360DFF81843DFF81823CF
S1133A5001EB5401B1FBF4F111600021DFF80C23F8
S1133A601268D20214D4DFF80823DFF8083312688E
S1133A701C68C2F38102521C650548BFD10004F0E2
S1133A80FF04FF2C04D05B685B0548BF01EBC20157
S1133A9000B1C91CDFF8E002016031BD30B5AB4AAA
S1133AA01268C117A2FB004502FB0155B4F17F4027
S1133AB065F1FF31400E40EAC110803830BD80B559
S1133AC0FFF7ECFF0128B8BF002002BD43F2C82273
S1133AD0914228BF1146C181C08970472DE9F04742
S1133AE005000C4600F09680E00747F230584FF48A
S1133AF07A7651D5E88A28B100F062FDE98A00F0AF
S1133B008BF800E04046FFF7DAFF9C490860688ABA
S1133B1028B100F055FD698A00F07EF800E04046C7
S1133B20FFF7CDFF9649974FDFF85C920860A88AAB
S1133B30E0B100F045FDA98A7143081AA968A0F60E
S1133B40C410A0EB010A8448006800040AD58F4819
S1133B505044FFF7A3FFC9F800008D485044FFF715
S1133B609DFF09E02868AAEB000A00E0C24650461F
S1133B70FFF794FFC9F800003860688B38B100F093
S1133B801FFD698B7143081AA0F6C41000E040467B
S1133B90FFF795FF7F490860A007DFF8FC9142F228
S1133BA0107720D5E98906FB01F039B12968791825
S1133BB00818297911B100F5C240A830FFF77FFF3A
S1133BC076490860288B010008D0A96806FB00101C
S1133BD02979484419B17249081800E04046FFF7B2
S1133BE06EFF70490860600714D5288A010014BF6D
S1133BF006FB00904046FFF762FF6B490860A98905
S1133C0006FB01F011B1296879180818FFF757FF6E
S1133C1066490860BDE8F0877143081AA968A0F6F0
S1133C20C410401A7047072158E7012156E7826003
S1133C30016000207047484B1B681B0405D5484BA6
S1133C40984208BF9200890046480A23B0FBF3F06B
S1133C505118574A430802FB0131B1FBF0F0704799
S1133C603D490968C000090448BFC01C70473A4870
S1133C700068000401D52F2070474E48016C0A0CDF
S1133C80C1F30111491C514342F21172914202D312
S1133C904FF0FF307047006800F01F004018401CD0
S1133CA07047000038B50C0005461AD0217A080088
S1133CB017D00020491E062925D8DFE801F0131883
S1133CC0160D130406000720207200F077F8024650
S1133CD000212846FFF7AFFF217A11B1216840186F
S1133CE0206031BD04212172F8E702202072FFF721
S1133CF0BEFF014611F1010F05D000222846FFF74F
S1133D009AFF4042E8E70020207231BD38B50446EE
S1133D1008461546FFF7E1FD21680F4A12681204B0
S1133D2004D5002D14BF24494BF6EB6101F5FA715B
S1133D304FF47A72B1FBF2F1401A32BD844008406C
S1133D40B2E60E00901F002165CD1D00E81700208B
S1133D50B81F002140420F0030610840881F002135
S1133D6048E8010020A107008C1F0021040008403E
S1133D7000200840A8000840941F0021A81F00212B
S1133D80A01F0021841F0021A41F00211541FFFF53
S1133D900526FDFFB41F002130DFFFFFB01F002107
S1133DA0589EFFFFAC1F0021981F00219C1F00217B
S1133DB0A08601001C600840FBD90200606880B244
S1133DC04EE77500A94840687047A848C068704726
S1133DD0A7480068C0F3080101F00700C90811F002
S1133DE0070F1CBF01F007025043C90818BF48431E
S1133DF07047A0480068000900F0010080F001004D
S1133E00704710B50446FFF7E3FF48B19A49B1FB88
S1133E10F0F18C4222BF9949B1FBF0F0A04201D2EB
S1133E20002010BD012010BD2DE9F84C06468A463D
S1133E30FFF7CEFF04463046FFF7E3FF18B90E2123
S1133E4000F0EAF90EE0012C19BF10208C49102073
S1133E508C49086001F0B8FC8346002C18BFBBF104
S1133E60000F01D1022048E0804D6E6004FB06F78C
S1133E70790BF8045A460023834E01F081FD30602B
S1133E80E2047068C5F80CA0C0F31300ABFB00019A
S1133E90002301F075FDA8605A46A4FB0A01C90479
S1133EA041EA5031C004002301F06AFD30612878F2
S1133EB018B9706A00F03F00287074480068400622
S1133EC018D57348B7FBF0F000FB00F140F24D52F7
S1133ED051434CF20C6202FB10106E49081803D1D6
S1133EE02B2100F099F9012029786B4A5143B1FB49
S1133EF0F0F0706200F01DF80020BDE8F28C70B59F
S1133F0006460C46654D2868000E00F00F00042894
S1133F10F9D00A28F7D0401E8041C00F0F2100F0CD
S1133F207BF95F4806600CB180206860BDE8704092
S1133F30FFE7FEB50FF2A0111CC968461CC04B4C2C
S1133F4058486168E268836803FB0211A26800684C
S1133F50C0024CBF5018881A5349B0FBF1F16944B0
S1133F604D780121A940B0FBF1F65048B6FBF0F0C2
S1133F7068444778206920B92B2100F04DF90120CD
S1133F80206120694A4A06EB5001B1FBF0F043F688
S1133F90FF511160401E40EA0530464940EA87203F
S1133FA00860304600F001F8F7BD38B5044601F06A
S1133FB00BFC18B92B2100F02FF90120B4FBF0F110
S1133FC000FB114264235A43B2FBF0F000B9491ECE
S1133FD04808441E481C4008451E082C38BF082DBC
S1133FE002D255EA040003D11021002000F014F994
S1133FF031494FF4EE6008602802304940EA041069
S1134000086031BD194801214170006970B52C4C1C
S1134010164D4FF40021216028612B490968B9B17C
S11340202A4908182A49B0FBF1F0C61E294800683D
S113403000F00700F6B2B0421CBF304601F09BFF0F
S1134040687828B11F494FF470200860300420605C
S113405070BD0649002048704FF4002018490860DC
S1134060704717494020086070470000CC060020C4
S1134070343008403841084000371789007DDAACF5
S113408038410846384108442C30084094400840E0
S113409000366E01502D19008096980004400840A7
S11340A0383008403030084040BE4025401B5F1384
S11340B0A4400844A4400846304008443040084620
S11340C094400846944008448009C64320A1070050
S11340D040420F0070300E4000000102020303034F
S11340E0030000002DE9F34F414883B005680398AD
S11340F001F07AFF002445F06C00A84206D13D4847
S11341000068C00702D4FFF78CF908B1002053E01F
S1134110FDF78AFF01904FF060583748DFF8DC90D4
S11341200568D9F800A036483649374EC0F80080F3
S11341304FF0006008602420C9F8000004203349CF
S113414008604FF48047B7664FF48050706207E010
S113415003985A466946204401F0B6FA5C44A4B276
S1134160BDF81000844215DA306E4004FCD5306886
S1134170C005F9D5B766D9F804000090BDF8100061
S1134180001B0428BABFBDF81000A0EB040B4FF0CD
S1134190040BDDE71E4904200860C9F800A0184894
S11341A01849C0F8008005F060500860B7660198AF
S11341B0FDF73EFFBDF8100005B0BDE8F08F80B5F7
S11341C002216846FFF78EFF022801D0002002BDBD
S11341D0BDF800004FF60401884204BF401CADF84E
S11341E00000BDF800000B490860012002BD00007A
S11341F0C8400E400C400840186008408400084045
S1134200186008441860084600000840004008464A
S1134210004008445850084028B903480160034846
S1134220006801F0E5BE704700070020A8170020D1
S1134230002201F0E7BE00000B480C4A416D006803
S113424000020016C9B2FF2918BF10F1010F19BFEF
S113425000EBD070401090210C2040189070022088
S11342605070232010707047B081E00F611F00214F
S1134270F8B505460E46FFF7C1F8DFF8DC44DFF871
S1134280DC7400202060DFF8D80400682978022953
S113429007D1800218D503203871FF20387001201F
S11342A0F2BD012903D110F4400FF4D10CE0002930
S11342B0F1D1DFF8B014096801F0010181F00101C6
S11342C000F480000843E6D106222946381D01F097
S11342D0FBF9002000F05EF8A888314600F087F969
S11342E02068DFF8841408403979022902D100F0EB
S11342F042F806E0012902D100F02CF801E000F0B8
S113430018F82060002000F045F8DFF8601403205E
S1134310086000F00AFA0020F2BD80B50622DFF83A
S1134320501401F0D1F9002002BDDFF83004007808
S11343307047DFF8401407224A600523DFF8382469
S11343405360C0230B60812140F08040116040F035
S113435004007047DFF82414DFF8243407228A604D
S113436040F0030006221A60DFF818244A604FF474
S113437040420A607047DFF810244FF4EE411160A8
S11343804FF48A42DFF804144A6001220A6040F0C4
S1134390804070472DE9F0470546C82000F09BF89F
S11343A0DFF8B8130C792646FF20032E08BF0870E7
S11343B000F08F80DFF8A023DFF8D47313681F4068
S11343C0012EDFF8B0330CD1082DA8BF072502DA7F
S11343D0012D08BF0225ECB2042047EA04651865E4
S11343E071E047F47C5747F0C80E24B9052D02D379
S11343F001272D1F00E00027DFF864432468E4430D
S113440004F4FE1444F40054B4FA84F4C4F1130420
S1134410C4EB4414EDB2E4B2A54288BF2546002F94
S113442014BF04240024641905B16D1EEDB24FF0CD
S11344301F0CB5FBFCF84FF0010C08F10109C8EBA7
S113444048180CFA09FCA5EB0805ACF1010C6D1C2D
S113445091F803A00CF0FF0C2D0645EA8C35BAF157
S1134460000F45EA0E054FF0FF38814610D0DFF803
S11344702403022EBCFA8CF6C6F11F0818BF0830BC
S11344804FFA88F8B8F1000F58BF10F80890484662
S1134490A6B2002E08BFDFF800030BD018F1010FFD
S11344A018BFFF2804D018B1000640F0040001E052
S11344B04FF07F40DFF8E46230604FF480000FB1CA
S11344C0DFF8B432186015600C70087800F003F857
S11344D0E0B2BDE8F087DFF884120A79032A00D13C
S11344E07047F0B5DFF87042DFF8B4322268DFF8C5
S11344F0B47203EA0205CA88B2F5E16F87BF50239C
S11345005A227823C822824232BF43F6C8762E0A42
S113451006F47F56354325601F28DFF88C62DFF8E8
S11345208C42DFF88C524FF0010C27BFC4F874C0E2
S1134530C5F804C0C6F874C0C7F804C0897851B17E
S1134540834208D24DF6017131678242396034BF2B
S11345501720102002E008203060F0BD000240F473
S113456040402067286008202060F0BD10B5FFF7A8
S113457040FC904C20B1206800F00BF8206003E070
S1134580A06900F006F8A0614FF000708A49086045
S113459010BD20F47F11400800F4FE10084370475A
S11345A0704738B5FFF725FC844C85494FF4001556
S11345B0002814BF2560A5614FF00060086031BD7C
S11345C066480069704710B5044600F0AEF86348C9
S11345D07C4A41781268C2F38212914205D0C068C5
S11345E0214600F004F8012010BD002010BD2DE983
S11345F0F041884600B90120584DE86071480068D0
S1134600800900F007006870801E012801D9001F8E
S113461001D1002610E02879E978022804D1002984
S11346200CBF9626C82607E0012808BF322603D00F
S1134630002914BFF026B4260821304600F050F8B3
S113464008270424E968884209D0304634BFE719B2
S11346503F1BF9B200F044F86408002CF2D1E96879
S1134660814238BF7F1E58493004086040F6FF700D
S11346705649086038025649086000F017F8288146
S1134680FEF7C3FE41F66A01B0FBF1F006FA07F14A
S11346904FF4FA725143B1FBF0F00A214843286108
S11346A04046FFF7C2FA2889BDE8F08170B5494851
S11346B04468056805F00F01E0B200F011F8064601
S11346C02004C5F30311000E00F00AF88619280A25
S11346D000F00F012002000E00F002F8801970BDF6
S11346E038B504460D46FEF790FE6421B0FBF1F0A8
S11346F004FA05F1491142F210725143B1FBF0F092
S113470032BD354B354A1A600204000502F4E0223A
S113471000F0F870104301F007020901104301F49E
S1134720F87108432E490860704780B5FFF750FBC5
S11347300A2828BF00200FF2AC010A5C012801BF3F
S113474006480079012842F0400202F00F011009E6
S1134750BDE80440D5E70000E81F0021B8060020AA
S113476088410E40D481E00FE8FFFFBF5841084460
S1134770BC06002008410844084108460441084496
S11347800C410846C1004000244108442041084629
S11347903F00C0E0B083E00F0400000B5841084024
S11347A037C0FFFF1C410844944008449440084625
S11347B01C410846004108401C4008400041084490
S11347C02040084418600840BC600840B8600844B1
S11347D0B8600846B860084050410844F701F70142
S11347E050410846FA04FA000033330A0A0A00006A
S11347F00120704710B50446FDF7F3FC08B1002012
S113480010BD204610BD70B50D00044614BF01262E
S113481000261F213046FFF7FFFC0020E062A5625E
S11348201F213046FFF7F8FC4FF6FF76002001E029
S1134830401CC0B2E968884209D2A968182212FB58
S113484000F21144C989B142F2DA0E00F0D100F04D
S113485057F918B1DFF89412002008603146204659
S113486000F05EF8304670BD704710B50446FDF7A1
S113487072FD206B0100DFF8741208BFDFF87002CC
S1134880886010BD70B5154600F10C0628000C4672
S113489008BF974D3046FFF7ABFF08B193488560DA
S11348A021463046BDE87040ADE710B50C46FDF733
S11348B05BFD1CB1FDF76EFD0128FBD110BD70B589
S11348C0426B0120002300E05B1CD468A3420AD29F
S11348D0946818255D432C44E689B14224BF248A98
S11348E08C42F1D3002070BDF0B5044681480668BF
S11348F083B00D4669462046FDF711FFB5F9122035
S1134900012747F6FF702479824207D09DF80010F2
S1134910304601F091FBA04238BF00273846FEBD67
S11349202DE9F04F85B04FF000098DF80190044651
S11349306E4F8DF800900D463868D7F804A00290A9
S1134940CDF804A0204600F0C1F88046A66AD4F849
S11349502CB000F0D5F8002818BFD34505D1BBF121
S1134960000F02D0A8B240454BD0002E1CBFB06847
S1134970002801D0F06808B903209CE0CA4601E091
S11349800AF1010AF068824518D2B068182101FBC7
S11349900AF10144A8B2CA89904222BF088AAAB285
S11349A09042EDD301208DF800008B462046FFF79E
S11349B09BFF0028E4D001208DF8010003A92046C4
S11349C0FDF7ADFE2046FDF7B0FE82469DF80100DE
S11349D0C0B1217900F073F8386860B3B04223D1D4
S11349E07A680AB35A451FD1A9B2884506D0002374
S11349F02046FDF79CFE5FEA000912D1C4F82CB0F2
S1134A00658057E09DF8000048B1BBF912209DF87D
S1134A100C10A4F10C0001F00FFB0146DAE70120B1
S1134A2049E000F04BF83FE0016821B1326891425F
S1134A3008BF416800D0316800F045F881465FEA5C
S1134A40090004D1DBF8001000F03DF881465FEA6C
S1134A5009000FD100F054F810B13E60C7F804B05B
S1134A60C4F82CB0658001235A46A9B22046FDF74C
S1134A705EFE81465FEA090005D1BA685946A4F191
S1134A800C00904716E000F03BF898B102983860AB
S1134A9001987860386808B100F014F800F00EF856
S1134AA0786838B100F00EF87A6800234146204651
S1134AB0FDF73DFE484605B0BDE8F08F514620465F
S1134AC0FDF71DBE01682046FEF760B840887047B8
S1134AD00022027142718271427209B106491222A6
S1134AE002720022C271016070470000EC060020CF
S1134AF069480000A8170020165EB355806A704705
S1134B00204675E630B583B00C30DDE90645CDE9C5
S1134B100045FDF7EEFB3EBD38B500F01BF8002163
S1134B202561E160BDE83240FDF782BA38B500F096
S1134B3011F82169E26829400D0018BF01251143CD
S1134B40E160FDF775FA15B10020042134BD0020A1
S1134B50002134BD04460D46FDF766BA80B50C301D
S1134B6001F00111FFF7D8FF002002BD890001EB1D
S1134B70401000F1844002607047890001EB40104E
S1134B8000F184400068704700F1806300F1C06068
S1134B90196002607047401CB0FA80F0C0F11F0039
S1134BA0704710B5DFF8C44712212046FFF7E5FF30
S1134BB00028F9D12068000C00F0030010BD012288
S1134BC0DFF8201710B5884232BF0022DFF818172B
S1134BD0884201D2144600E002241021DFF80C07B9
S1134BE0FFF7C4FFDFF8CC07016821F0807141EAC8
S1134BF00461016010BD70B5DFF8F426DFF8B84732
S1134C001368002304EBC305CEB22D79B54203D15A
S1134C1054F83350854202D25B1C052BF2D3052B8A
S1134C200EBF032004EBC3004079116821F04071EA
S1134C3041EA0060106070BD38B500F013F841F629
S1134C407130206000F0A3FD002105E038B500F0CC
S1134C5009F841F671322260FFF7CDFF0DB1002053
S1134C60206031BDDFF85447256805B10125704740
S1134C70C01C0F2801D2000770474FF070407047E6
S1134C8038B50446002500F00DFADFF8E426DFF815
S1134C906416944208D0DFF8DC26944206D0DFF88C
S1134CA0D826944204D006E0086802E0486800E090
S1134CB0886800F00700401E03281BD8DFE800F0D6
S1134CC002050C0800F094FD04E000F097FD01E0FB
S1134CD000F091FD05460DE000F04CFDDFF8D41620
S1134CE00968090E01F001010122491C02FA01F1CF
S1134CF0B0FBF1F5284632BDDFF8C4164A68D20786
S1134D0002D40A680242FCD1704780B500F0D8F89A
S1134D10401C02BD491E1BE10000000070B5020AE0
S1134D200C4602F00F020021521E092ADFF85C58DB
S1134D3014D8DFE802F005141313071619131C2006
S1134D40DFF8A855C0F3043611B10846FFF7D4FFC5
S1134D50224631462846BDE8704007E770BD10354D
S1134D60F0E730350121EDE738351021EAE7403529
S1134D704FF48031E6E7DFF88058E3E770B5DFF8F9
S1134D804416DFF8EC250E68DFF8E815DFF8244652
S1134D90012510F4781075D0B0F5003F30D0B0F58F
S1134DA0802F27D0B0F5202F6CD0B0F5402F2DD018
S1134DB0B0F5602F5ED0B0F5801F3FD0B0F5A01FD6
S1134DC053D0B0F5B01F2AD0B0F5C01F39D0B0F51C
S1134DD0E01F22D0B0F5F01F31D0B0F5081F44D049
S1134DE0B0F5301F22D0B0F5381F31D0B0F5401FD8
S1134DF04BD061E000F0CDFCE168C1F308210AE08A
S1134E0000F0C7FCA168C1F3082104E000F0C1FC74
S1134E106169C1F30421491C24E0104627E01046CF
S1134E20FFF72EFF216A01F00F0119E01046FFF78A
S1134E3027FF0646206AC0F30110C6403DE008463D
S1134E4015E00846FFF71CFFA16AC1F3011107E052
S1134E500846FFF715FFA16A090A01F00301091DBD
S1134E6005FA01F1B0FBF1F627E0DFF80C05FFF7D6
S1134E7007FF1FE0DFF8840700F014F907281CD0AF
S1134E80092819D100F085FC14E0DFF8740700F05C
S1134E9009F904280CD007280FD008280CD100F0F9
S1134EA078FC2168C1F30421491C01FB00F604E0ED
S1134EB000F08AFC064600E00026304670BD000083
S1134EC0030903F00F0301215B1E092BDFF8E4241F
S1134ED03BD8DFE803F005070B0F3A3A1115243AE3
S1134EE0106800E05069C0F3042070471068C0F3F4
S1134EF000607047D06800E09068C0F308207047F5
S1134F00DFF80037984204D0DFF8FC36984204D02A
S1134F101BE0106A00F00F0013E0106A09E0DFF8EC
S1134F20EC36984204D0DFF8E836984204D00CE01E
S1134F30906AC0F3011004E0906A000A00F00300D4
S1134F40001D01FA00F0401E704700207047000069
S1134F502DE9F0420E46010901F00F01491E09290D
S1134F60DFF85054DFF8AC46DFF8AC76DFF8749322
S1134F7018D8DFE801F00511181F9393253E6386C6
S1134F80FFF75AFE4846FFF71AFE286820F4F85047
S1134F9040EA062028601DE0686920F4F85040EAE1
S1134FA0062068617AE0286820F0807040EA066094
S1134FB0286073E0E868384040EA0620E8606DE065
S1134FC0FFF73AFE4846FFF7FAFDA868384040EA82
S1134FD00620A86000F0CEFB0546FFF7E2FD01467F
S1134FE02846FFF733FE2046FFF7C8FEBDE8F0422F
S1134FF0E5E5DFF82816884247D0DFF8081688422E
S113500004D0DFF8041688420BD047E000F048F8DB
S113501006460420FFF770FE286A000946EA0010DD
S11350200AE000F03DF806460420FFF765FE286A12
S113503020F0300040EA061028622FE0DFF8CC159B
S1135040884204D0DFF8C81588420CD026E000F06E
S113505027F806464020FFF74FFEA86A20F03000EC
S113506040EA06100BE000F01BF804464020FFF76E
S113507043FEA86A20F44070211F40EA0120A86280
S11350800CE0DFF89815884208D14FF48020FFF730
S113509033FE286B800846EA80002863BDE8F0826E
S11350A0304678E5014601F00F010120491E072929
S11350B0DFF86C2549D8DFE801F0040F1348202EEF
S11350C04836506A00F0070002283AD002D3042878
S11350D004D01CD30520704711690FE002207047EB
S11350E0516901F00701491E03292FD8DFE801F0B7
S11350F00F020311F2E706207047916901F00701DE
S1135100012904D00229E9D0042902D070470320E0
S113511070470A207047116811F001010FD001296E
S113512014D109207047DFF8FC14096801F030013C
S1135130102904D0202904D0302904D07047072036
S11351407047042070470820704700207047000013
S11351502DE9F843804600260324B8F1110F0F46C9
S1135160A14612D1042F02D100F02EFB08E0052F36
S11351700BD1DFF8B404DFF8B4140068884204D318
S113518006001CBF002100F095FC08F00F00401E33
S11351900728DFF88C540ED8DFE800F00440468E70
S11351A043728E7C022F4F4806D0032F2CD0042F3D
S11351B02DD0052F30D07FE004244FF000090122C8
S11351C00121484600F000F9FFF736FD36B11221FF
S11351D0DFF89801FFF7D1FC0028F8D16C6000F0EB
S11351E07DF8FFF7ECFC00F0C5FA0446FFF7D9FCA4
S11351F001462046FFF72AFD002E5DD1BDE8F443A9
S11352000121002000F056BC4FF00109D7E7022429
S1135210A146FFF7D4FCD2E70124FAE705F1100414
S113522004E005F1180401E005F11404012F08D08D
S1135230022F09D0032F0ED0062F13D00A2F1DD012
S11352403AE00020206037E001220121002000F034
S1135250BBF80220F6E701220121012000F0B4F896
S11352600120EFE700F086FAFFF7A9FC01220221F2
S1135270DFF81803FFF77AFC0320E3E70420E1E7F3
S1135280072F02D0092F02D016E0002000E00120F1
S1135290286011E0012F06D0042F16D0072F0DD05F
S11352A0082F19D008E00020DFF878130A6822F0EC
S11352B0300242EA00100860BDE8F18301220121B6
S11352C0042000F081F80120EEE7012201210220F0
S11352D000F07AF80220E7E70320E5E7DFF834037B
S11352E04CE500000148E8010190D00300400E4065
S11352F004000E4080400E4070B500F03FF80122DB
S11353000021022000F060F8217CDFF82C530020FB
S11353100229296808BF0120490840EA41002860A1
S1135320082122782846FFF721FCA088617A41EA07
S1135330C020A860EE68207AFFF79AFCE28806F0A5
S11353407F6141EAC221A27A1143227A41EAC21161
S11353500843E860A17B607B090141EA0030E17BFE
S11353600843217B40EA0140286170BD04300E40AF
S113537002001C0003001E00050022000446112048
S113538090E610B5FFF7FAFF00220021002000F09C
S11353901BF82078617840EAC120A17840EA0160D6
S11353A0E178BDE8104040EA0122A449A448FFF78F
S11353B0EBBB000000410E40D0A6000040000E40B0
S11353C040410E40100700202DE9F84F0428824682
S11353D0904673D8DFE800F04E493F0344000126AD
S11353E00220012700240029DFF80892924D60D0A2
S11353F0BAF1020F02BF2868C0F3011000284FF071
S1135400000B0CD18F4800682868C0074FF0010BCF
S113541005D5286820F0300040F010002860EE63C5
S113542000F04EF80028FBD0B8F1000F46D0394602
S113543000F047F80028FAD0BAF1020F3ED1BBF1D0
S1135440000F3BD02868C0071BD501222021022071
S113545000F0C0F819E00426082003270224C2E75C
S11354601026202005270424BDE740268020072796
S11354700624B8E74FF480764FF400700927082417
S1135480B1E70021022000F083F8022000F01CF8AC
S11354900446012200210220FFF796FF2146022044
S11354A000F02CF8EE63394600F00BF80028FAD02F
S11354B004E0E86300F004F80028FBD1BDE8F18FB4
S11354C021464846FFF759BB401E0328584912D8C5
S11354D0DFE800F0020C06080869C0F30800704712
S11354E0086800E0886800F07F007047564800684C
S11354F0C0F30A00704700207047000070B5401EDA
S11355000D46032805F07F01494C4A4E3DD8DFE89B
S113551000F0022A101DC5F308051A213046FFF7D2
S11355202CFB0028F9D12069400A45EA402020617B
S113553070BD0D4618213046FFF71FFB0028F9D136
S11355402068C00945EAC010206070BD0D461921CD
S11355503046FFF712FB0028F9D1A068C00945EADC
S1135560C010A06070BD23480068606920F030005E
S113557040F010006061C5F3C310FFF779FB216AA6
S1135580324A114029430843206270BDB0400E40A6
S113559029480268C2F30112002A18BF002907D063
S11355A0202902D0302903D005E04FF4000103E0A4
S11355B04FF4400100E02649C26E0A408A42FBD102
S11355C0490204D5C06F800A00F001007047012031
S11355D07047000010B502280AD10B0004D01D4BFF
S11355E04FF480645C64196012B1BDE81040CFE7E9
S11355F0012010BD90400E4050410E4006000E00A8
S1135600B80030008006160080162C009017180091
S113561090272E0000250A00FF00FEFFA0091400B9
S113562070400E405C410E4020070020012D3101E6
S113563010400E4040410E4024400E407F1B0007A6
S113564038400E403C300E409C400E4000F8FF0FA6
S1135650FF33E13F64400E400C30FDF7F2B90C30EB
S1135660FDF71DBA0C30FDF74FB90C30FDF772B9D8
S11356700C30FDF7E3B9000080B54FF40071ADF8CC
S113568000106A460649FFF7EAFFBDF80010B1F5BD
S1135690007F01D0012002BD022808BF002002BD06
S11356A0380F002010F1010F05D0DFF80C100A6844
S11356B0C0EA0200086070473C4108408021FCF7C2
S11356C043BC00207047704762B38B0708D0521E5A
S11356D011F8013B00F8013B00F024808B07F6D160
S11356E0830740F0208000BF103A07D330B4B1E8FC
S11356F03810103AA0E83810F9D230BC530724BF50
S1135700B1E80810A0E8081044BF51F8043B40F881
S1135710043BD20724BF31F8022B20F8022B44BFEC
S11357200B7803707047083A07D3B1E80810083AB9
S113573040F8043B40F804CBF7D25307E4E70000F9
S11357400B494A680B68920002F03C02C3F38113D0
S11357501A4382700A6802F03F0242708A68C9687C
S113576002F0F002C1F3031111430170704700000D
S1135770E0FF0FE080B500F00CF82749274A0968DC
S1135780C1F30821491CB0FBF1F0106002BD2448AC
S113579070472448016801F00701022909D00AD39F
S11357A0042901D002D306E01F4905E04FF400416B
S11357B003E01E4900E01E490968C06EC0F30420DE
S11357C0401CB1FBF0F07047184800687047174957
S11357D008601448006800F00700022808BFFFF7BB
S11357E0C9BF70471348016841F4700101607047F4
S11357F04FF4004070474FF47A7070470A480068CD
S11358007047094908600748006800F00700042849
S113581008BFFFF7AFBF704708410E401C070020C8
S113582000F0490294400E4018070020140700209D
S11358302007002088ED00E0890001EB401000F112
S113584084400260704700F1806300F1C060196019
S1135850026070473023424A584310440C3000F130
S1135860806006E030233E4A584310440C3000F177
S1135870C060012202FA01F1016070472DE9F04194
S113588001F00308144603270F21082C1D460CD2EF
S1135890A60000FA06F2B1403248FFF7D4FF08FA36
S11358A006F207FA06F130480DE0A4F1080296006A
S11358B000FA06F2B1402D48FFF7C5FF08FA06F2D8
S11358C007FA06F12A48FFF7BEFF2A46214629486F
S11358D0294DFFF7B1FF069A21462846FFF7ACFF92
S11358E00120A04028612146079A2448BDE8F041E0
S11358F0A2E7F8B50446164630000D461F4607D009
S1135900002F204602D0FFF7ADFF01E0FFF7A2FF12
S113591030210F22124811FB04F1082D084405D24E
S1135920AB00416800F015F8416006E0A5F10803FA
S11359309B00816800F00DF881604EB9002F294664
S1135940204602D0BDE8F4408CE7BDE8F44081E78E
S1135950F1BD9A4021EA020206FA03F111437047AD
S113596000A0004000A4004008A4004004A400409B
S11359700CA4004010A4004014A4004028A400403B
S11359801B4213D1094236D12AB18446B0FBF2F04E
S113599002FB10C2704700F0B7BBFCD30022002307
S11359A070470B000200002100207047904271EB09
S11359B0030CF6D370B5B1FA81F4B3FA83F52C1B5A
S11359C0A340C4F1200532FA05F63343A2405FF048
S11359D00046E64002E05B085FEA3202841A71EB9B
S11359E0030524BF204629467641F4D302000B0068
S11359F03000002170BD012ACFD970B5140C20D01D
S1135A00B1FA81F4B2FA82F5C4F120046419B4F154
S1135A102006D6D3B2405FF00044F440002502E0F3
S1135A2052085FEA3303C61A71EB020E24BF3046F4
S1135A30714664416D41F3D302000B00200029003C
S1135A4070BD0C46B1FBF2F102FB11452D0445EA91
S1135A501045B5FBF2F402FB145580B240EA05454B
S1135A60B5FBF2F002FB105240EA044070BDEFF3C4
S1135A70108072B6704700B962B67047890001EBB6
S1135A80401000F1844002607047890001EB40102F
S1135A9000F184400068704710B5DFF8FC4412211F
S1135AA02046FFF7F2FF0028F9D12068000C00F02F
S1135AB0030010BD38B50C46DFF8E0140D6828B9B2
S1135AC0FFF767FEC5F30421491C4843DFF8D014EF
S1135AD0097831B1DFF8CC14884202D22146022081
S1135AE001E021460020BDE83440F8B50446DFF863
S1135AF0AC0400680D46FFF74CFE0646FFF7CCFFEA
S1135B00A042214619D0022C04BF3046FFF79EF86C
S1135B10DFF884741020C4F102018840F8602DB1CC
S1135B2012213846FFF7B1FF0028F9D12CB93046CD
S1135B30BDE8F4400021FFF789B8F1BDDFF868043F
S1135B400068032920D8DFE801F00205080B00F003
S1135B50FF0006E0C0F3072003E0C0F3074000E0C5
S1135B60000E1300DFF8441408D1000330F470432E
S1135B700AD10B6823F4704303430B60012A0AD152
S1135B80000330F4704201D0002070474A6F22F4C1
S1135B907042104348670120704770B50025002407
S1135BA052EA0322DFF8086416D0521E0CD0FF3AE2
S1135BB014D0521E0AD0FF3A12D0521E08D0FF3A17
S1135BC014D0521E06D015E0B2680AE0B2680EE0A6
S1135BD0F26806E0F2680AE0326802E0326806E041
S1135BE07268C2F3072402F0FF0503E07268140E22
S1135BF0C2F3074505600C6070BDF8B50446DFF8D4
S1135C00B453686AC007FCD4DFF8AC63F06910F0E1
S1135C10030704D001220D212846FFF72FFFA742D6
S1135C2002D12CBB00221EE0032F18BF002F0FD17E
S1135C30022C18BF012C0BD14FF40020B06000F0EF
S1135C4018F8800040F00100F06130680003FCD5D2
S1135C5000F00FF844EA8000F061686AC007FCD4E1
S1135C60220018BF01222846BDE8F8400D2105E7AF
S1135C70F1BD686AC007FCD4F0698008704770B54C
S1135C800446E0884B2838BF00200DD3B0F5FA7FD6
S1135C9038BF4FF0805007D340F6C411884234BF58
S1135CA04FF000504FF04050DFF81453DFF8143336
S1135CB02969B4F90C20DFF810631940D243084372
S1135CC040EAD2702861DFF80403016841F44071AE
S1135CD001600021306A40F0807030623046FFF786
S1135CE0D4FE00B1042000F046F92089DFF8E01268
