S0340000626F6F746C6F616465722D73746F726167652D696E7465726E616C2D73696E676C655F352D636F6D62696E65642E73333738
S3150FE100000A4880F308880A4800470000000000000C
S3150FE1001000000000000000000000000000000000EA
S3150FE1002000000000000000006C05E10F90040020C5
S3150FE100305505E10F6449654A01E021B1491E13698E
S3150FE10040DB07FAD401B9B0E0506001201060106906
S3150FE1005010F0060F05D0410700D5A9E0800700D5BE
S3150FE10060A9E000207047F0B513460022002936D0EB
S3150FE10070554C564D8BB98B4231D250F8046BEE602D
S3150FE100805B1C08262E60264601E036B3761E2F69E5
S3150FE10090FF07FAD4002EEED11FE0EFF3108672B60A
S3150FE100A000230EE02F6907F01907102F08BF2F6005
S3150FE100B02F693F07F6D550F8047BEF605B1C1027DD
S3150FE100C02F608B42F4D306B962B6264601E026B11C
S3150FE100D0761E2869C007FAD40EB96FF002021046F0
S3150FE100E0F0BD2DE9F0479A46354B364F1C681B6834
S3150FE100F03B688046002043F001033B60950881464B
S3150FE101000C4602E0B14404EB8604A94517D208EB8D
S3150FE1011089063046FFF78EFF010014D1C6F30B00B7
S3150FE10120C0F580508608A5EB0900B04238BF0646F8
S3150FE10130524631462046FFF796FF0100E2D0396875
S3150FE10140490849003960BDE8F0871D491E4A0B6829
S3150FE1015009681C490B6843F001030B6088600120B5
S3150FE1016048604869400704D50868400840000860C0
S3150FE101701EE04869800704D508684008400008601A
S3150FE1018019E00220486001E022B1521E4869C0071A
S3150FE10190FAD422B9086840084000086005E008680B
S3150FE101A0400840000860002070476FF0020070477A
S3150FE101B04FF0FF3070476FF001007047002390E773
S3150FE101C004300E4008000040809698000C00004075
S3150FE101D0084841F6713181630168490849000160B8
S3150FE101E070470448016849084900016000218163AD
S3150FE101F0704700000800004010B50446FFF7E8FF1E
S3150FE102002046FFF7A2FF0446FFF7EBFF601E804192
S3150FE10210C00F10BD10B58408800782B005D508045C
S3150FE1022040F47F4040F0FF0003E041F07F4040F4AF
S3150FE102307F000090FFF7CCFF04226946A000FFF78D
S3150FE10240BDFF0446FFF7CDFF204616BD2DE9F04170
S3150FE1025004460E46154604F0010005F00101084378
S3150FE1026028D12DB3A00707D536F8021B2046FFF795
S3150FE10270D1FFF8B9A41CAD1E042D13D3AF08FFF7B8
S3150FE10280A7FFBF003A4631462046FFF797FF804664
S3150FE10290FFF7A7FF3C19ED1B7808B8F1000F06EB46
S3150FE102A0400607D125B131882046FFF7B3FF08B9DC
S3150FE102B0012000E00020BDE8F081000070B5244880
S3150FE102C001680869CC68826AA2421DD304F5E04150
S3150FE102D08A4219D2111B45181E4A2968914213D138
S3150FE102E0E9681D4E4FF0FF3200F052F8B0420BD1E4
S3150FE102F01A480068AA688168914203D300F030F882
S3150FE10300B04201D0012070BD002070BDF8B5104894
S3150FE1031000680569C468A86A001B2E18274604E021
S3150FE103203846FFF769FF07F58057F26810198742DC
S3150FE10330F6D329462046FFF789FF0848006800F003
S3150FE103400FF80549884201D00020F2BD0120F2BD28
S3150FE103502800E10F07B0CD5EE320BBDE2810E10FE9
S3150FE10360C1684FF0FF32204600F012B80A0A484042
S3150FE1037000F0FF0008214308C00746BF0348584075
S3150FE103801846491EF7D15040704700002083B8ED5B
S3150FE1039070B504460D461046002604E00146A05D01
S3150FE103A0FFF7E4FF761CAE42F8D370BD1848194942
S3150FE103B00068086040211848C16001684903FCD410
S3150FE103C0FFF7A4FF0028FBD040F2022000F02CF843
S3150FE103D000BF80B500F048F810490968B1F5803FD4
S3150FE103E00AD040F20921884218BFB0F5007F03D148
S3150FE103F0FFF764FF00B101BD09490A4808600168CA
S3150FE1040081F3088881F3098840688047FEE7000099
S3150FE10410880000208C00002004300E4004500E406E
S3150FE1042008ED00E00010E10F4FF0005108804FF2A8
S3150FE104300F0048800948016821F4E06141F48061C9
S3150FE104400160BFF34F8F0648064A016801F4E06188
S3150FE1045011430160BFF34F8F00BFFDE700500E4020
S3150FE104600CED00E00400FA054FF000504FF20F02D9
S3150FE104704188914201D100887047002904BF008865
S3150FE10480012802D140F2022070474FF40070704705
S3150FE1049010B450F8041B79B102684368024408307E
S3150FE104A0DC0744BFA9F10104E31852F8044B43F802
S3150FE104B0044B091FF9D1ECE710BC704710B507499A
S3150FE104C079441831064C7C44163404E00A68081D59
S3150FE104D0114488470146A142F8D110BD2C00000016
S3150FE104E03C0000004EF68851CEF20001086840F458
S3150FE104F070000860BFF34F8FBFF36F8F4FF000703F
S3150FE10500E1EE100A7047000089FFFFFF10000000BF
S3150FE105108000000080000020000000000120C0469E
S3150FE10520002801D0FFF7CAFF0020AFF30080FFF7E5
S3150FE105303DFF00F000F800F001B80000074638462D
S3150FE1054000F002F8FBE7000020210903263118200D
S3150FE10550ABBEF9E7024880470248804702480047A9
S3150FE105608105E10FD303E10FA105E10FAD1007B04F
S3150FE1057001000000000005010010E10F00800000FE
S3150FE105800248016841F470010160704788ED00E0AF
S3150FE1059080F0FA0200800000C0EA2101C0EA2101E1
S3110FE105A0AFF30080FFF79EFFFFF7B8FFF7
S3150FE11000901000206D3AE10FB713E10FB536E10FFE
S3150FE110103F17E10F5718E10F4B22E10F00000000D8
S3150FE1102000000000000000005810E10FC322E10F9D
S3150FE11030F722E10F00000000E323E10F0725E10F9F
S3150FE110404546523332000000010000000100000066
S3150FE1105000E00F000000100007B0CD5E01000000B8
S3150FE1106000000501D42A0000000000000000200066
S3150FE11070F0000100D937E10FDD37E10F9538E10FC8
S3150FE11080DF21E10F0D22E10F8C10E10F00010000CE
S3150FE11090B913E10F1114E10F3B14E10F5914E10FED
S3150FE110A09D14E10F7B12E10F7511E10F5313E10F60
S3150FE110B0B714E10FE314E10F4315E10F4B17E10FFE
S3150FE110C05517E10F7317E10FAB17E10F02487047A1
S3150FE110D002487047024870474A43E00F6A43E00F00
S3150FE110E08642E00F4FF40420704700B50FF28000FF
S3150FE110F00168DFB068460091012100F03BF890BB33
S3150FE11100009810F1010F2CD04FF4BC7201A900F039
S3150FE11110D2F9002101A800F0E4F940F20121884259
S3150FE11120F7D040F2032188421BD19DF805009DF8C7
S3150FE11130041071B1A8B10D480268029993688B4208
S3150FE1114008D25B9800F068FA58B140F2092000F036
S3150FE11150BDFA30B104995B9800F074FA08B100203A
S3150FE1116001E040F205405FB000BD00002810E10F3D
S3150FE11170FFFFFFFF2DE9F04399B000F0E4F8684671
S3150FE11180142100F0D9FA684600F016F903980228FF
S3150FE111904FF0FF3809D2002020600120A8423CBF62
S3150FE111A044F82080401CF9D35CE0A84238BF40F2F6
S3150FE111B0045058D3FFF796FF07460498C068C6193F
S3150FE111C00C2205A9384600F0C5FA00284BD105983F
S3150FE111D0DFF8609148451FD00C2205A9304600F093
S3150FE111E0B9FA00283FD10598484507D00020A84213
S3150FE111F03CBF44F82080401CF9D31DE0079A05A9AE
S3150FE11200304600F0A7FA00F099F860BB079A05A9F6
S3150FE11210384600F0AEFA30BB079A05A9384600F01A
S3150FE1122099FA0799424605A800F006FB424988421A
S3150FE1123005D0002000F01AF840F2055013E00798A8
S3150FE1124010388008A84288BF2846002106E005AA83
S3150FE1125002EB8102D26844F82120491C8142F6D380
S3150FE1126000F004F8002019B0BDE8F08302E044F87D
S3150FE112702080401CA842FAD37047F0B599B000F030
S3150FE1128062F82C4805901421012006905020079012
S3150FE11290684600F051FA684600F08EF80398A842C6
S3150FE112A007D302280AD22068002818BF10F1010FD0
S3150FE112B002D040F204503AE0002038E0FFF712FF87
S3150FE112C006460498C0688719112D28BF10250020FE
S3150FE112D006E005AA54F8201002EB8002401CD1600B
S3150FE112E0A842F6D34FF0FF3004E005A901EB8501E3
S3150FE112F06D1CC860102DF8D302464C2105A800F0ED
S3150FE113009BFAC043189000F019F880B9502205A94D
S3150FE11310384600F02EFA50B90498C168304600F00D
S3150FE1132044FA20B9502205A9304600F022FA19B045
S3150FE11330F0BD000039528FE1E320BBDE0498C168AE
S3150FE11340384600F032BA04460D4605A8502100F0A2
S3150FE11350F3B930B595B004466846142100F0ECF9BF
S3150FE11360684600F029F8039D022D20D3294605A8EA
S3150FE11370FFF700FF00281CBF40F20551884218D144
S3150FE11380002005A900E0401CA84210D251F8202008
S3150FE1139012F1010F06D141F82040294605A8FFF7C2
S3150FE113A06CFF06E0A242EED140F2035001E040F2BB
S3150FE113B0025015B030BDFEE710B504000CD04FF466
S3150FE113C080302060002060609C480178217240687F
S3150FE113D0E06000F0B5F9206110BD70B504464FF439
S3150FE113E0B47026180D46A2B0B1683068802301AA01
S3150FE113F000F023F80095802301AA214604F1240089
S3150FE1140000F0A0FBF060B0688030B06022B070BD34
S3150FE1141010B540F2014231B1884B5C68A04204D36A
S3150FE11420002008604860104610BD03EBC0008268DB
S3150FE114300A60C0684860002010BD38B500F021F899
S3150FE1144000D325E000F017F800D224E080682018D9
S3150FE11450BDE8384000F07EB938B500F012F800D398
S3150FE1146016E000F008F800D215E080682018BDE814
S3150FE11470384000F07EB903EBC0001519C368AB42E3
S3150FE1148070470C4611461A466C4B5D68A842704789
S3150FE1149040F2014032BD40F2024032BD67494A682F
S3150FE114A0904202D340F20140704701EBC000C168A0
S3150FE114B0806800F07AB930B504460D4683B011461F
S3150FE114C0284600F08CFE58B969462046FFF7A0FF83
S3150FE114D030B94FF4B470284404600199416000209B
S3150FE114E03EBD7FB504460D460FF288100FC86E4616
S3150FE114F086E80F0002954FF4B6702518A86888B9EB
S3150FE115006868296888420DD269462046FFF765FF6C
S3150FE11510A86800281CBF41F2070188420CD140F2AE
S3150FE11520012009E0A01C017800291DBF40780028A1
S3150FE1153040F2032040F2022004B070BD0120187082
S3150FE115407047F0B585B0044600208DF800000D46D2
S3150FE1155016460FF230100FC801AF87E80F00CDF82E
S3150FE1156004D0002030601C21284600F0E5F84FF446
S3150FE11570B670271803E001A92046FFF72EFF9DF865
S3150FE11580000048B994F86A00112805D0B86818B96F
S3150FE11590786839688842EED3207808B160683060A0
S3150FE115A0607828B11C2204F10801284600F05EFE9E
S3150FE115B09DF80000002804BF6078002801D120784B
S3150FE115C008B1002001E040F2064005B0F0BD70B56C
S3150FE115D004460D46202304F1FC0204F1B40104F1A3
S3150FE115E0240000F073FA4FF4B670261803E029468B
S3150FE115F02046FFF7F2FEB06818B970683168884285
S3150FE11600F5D3A01C017800291CBF4078002801D032
S3150FE11610012070BD002070BD10B5094AE2B0126815
S3150FE1162092688A4202D200F01AF808B1002003E06C
S3150FE116300FF2600000F017F862B010BD4810E10F2D
S3150FE116402810E10F10B5E2B000F009F808B100205B
S3150FE1165003E00FF2500000F006F862B010BD4FF450
S3150FE11660BC7204A927E70FC86C4684E80F006946E8
S3150FE1167004A8ACE700000000000000000000000035
S3150FE1168000000000000000003D15E10F3D15E10FE0
S3150FE116903D15E10F00000000000000000000000012
S3150FE116A02F38E10F00000000E137E10F00000000E5
S3150FE116B0000000004FF0005108804FF20F00488004
S3150FE116C070470F494CF23C30088070474FF000519C
S3150FE116D008804FF20F0048800A48016821F4E06163
S3150FE116E041F480610160BFF34F8F0748074A0168F4
S3150FE116F001F4E06111430160BFF34F8F00BFFDE7D6
S3150FE117000200002000500E400CED00E00400FA0547
S3150FE117104FF000504FF20F024188914201D10088FC
S3150FE117207047002904BF0088012802D140F2022048
S3150FE1173070474FF400707047002200F0C3BDFEE71B
S3150FE117400FF2B4007047002070472848006800F098
S3150FE117500100704710B50B461118254CA14205D271
S3150FE117600146184600F072FD002010BD40F202401E
S3150FE1177010BD38B513181E4DAB4240F202440CD2E0
S3150FE11780002300E01B1D934209D21D182D6815F1A8
S3150FE11790010FF7D040F2034032BD204632BD00F0D3
S3150FE117A0E9FD0028F9D0002032BD70B505460C469B
S3150FE117B0200501D1280502D040F2044070BD601921
S3150FE117C00B49884240F2024603D300E008B930469E
S3150FE117D070BD284600F0A4FDB4F5805405F580559B
S3150FE117E0F4D10028F3D0002070BD00001C000040AA
S3150FE117F001002000002070470102030028000000CD
S3150FE118002800000000100000000020004010E10F4A
S3150FE11810020000000A0A484000F0FF0008214308D1
S3150FE11820C007184644BF034B5840491EF7D15040F5
S3150FE11830704700002083B8ED70B50D46044611469A
S3150FE11840002604E0A05DFFF7E5FF0146761CAE42F8
S3150FE11850F8D3084670BDFEE72DE9F8431F46044667
S3150FE11860786800280D4616464CD015F0030018BFD0
S3150FE1187041F2020046D100F0B9FD216E001D72184A
S3150FE1188082421DD300F11803994219D28446884248
S3150FE1189038BF8C469A4288BF1A46ACEB0101ACEBD6
S3150FE118A0000005EB0108A2EB0C0920444A4641462C
S3150FE118B0683000F0CBFCFF224946404600F0AAFD16
S3150FE118C000F098FD216E001D884222BF7218031D9C
S3150FE118D09A420DD3411A05EB01080422414604F160
S3150FE118E0800000F0B3FCFF220421404600F092FD98
S3150FE118F029463B68206E7D683246A847206E301830
S3150FE1190020660020BDE8F28330B54B688C689C42B7
S3150FE1191006D200F140021B1B14781B19412B01D390
S3150FE11920002030BD537814788D68E3180C68645D38
S3150FE1193003F03F03C4548B685B1C8B6013785B1C0D
S3150FE1194013704C688B68A342ECD3012030BD90F83D
S3150FE1195040004A6889681018401A70472DE9F0412E
S3150FE119600F46144698460546FFF7F1FF404505F148
S3150FE11970400607D239462846FFF7C6FF00284DD065
S3150FE11980002049E000200BE07178695C2154401C8E
S3150FE119907178491C01F03F0171703178491E317040
S3150FE119A0317809B14045EFD3B9687A68914238BFCA
S3150FE119B0404507D23A68515C2154401CB968491C2D
S3150FE119C0B960F1E7404529D1B26C41462046FFF7B0
S3150FE119D033FFB064069820B1F0684246214600F025
S3150FE119E056FD079800281CBFF078002805D0B0688F
S3150FE119F043462246214600F072FDF07838B1F06990
S3150FE11A00B1694044F061884224BF0020F0707069EB
S3150FE11A104044706141F20300BDE8F0811220B071DC
S3150FE11A2041F20200F8E7F0B585B0044600200190D7
S3150FE11A3000901546082302AA00F0BEFB41F2030609
S3150FE11A40B0423CD194F8430004F1480738B100F0B5
S3150FE11A5038F83868082302AA02A900F040FD9DF87C
S3150FE11A600A109DF80B00090441EA00609DF8091080
S3150FE11A7040EA01209DF80810084328609DF80E20E2
S3150FE11A809DF80F10120442EA01619DF80D2041EA1B
S3150FE11A9002219DF80C201143696094F8431049B96E
S3150FE11AA0DFF8A41688421CBFDFF8A016884201D0E2
S3150FE11AB000F007F86868B8600020F860304605B0B6
S3150FE11AC0F0BD7868082202A900F0E1BCF8B504463A
S3150FE11AD004F140070020B87138707870F8707871AA
S3150FE11AE038710D4603F02000B87016464FF0FF30FF
S3150FE11AF0B864FF22002038627862182104F1680089
S3150FE11B0000F088FCFF22042104F1800000F082FC42
S3150FE11B10FF22042104F1840000F07CFCBD60FE602D
S3150FE11B2000F062FC00B11DB100F05CFC18B116B912
S3150FE11B3041F20B00F2BD16B1F86800F09EFC0020F1
S3150FE11B40F2BD00002DE9FA4F99B0044603A8002132
S3150FE11B50002300252AC01A98DDF890A0039204907D
S3150FE11B6004F1420604F1480741F203080DF1200999
S3150FE11B700EE000F005FB40452CD10798DFF8D015B4
S3150FE11B80B8600020F8600698884270D10220307163
S3150FE11B9005981A99884280F0D28230791228F7D8BF
S3150FE11BA0DFE810F014001500C900430117016501C4
S3150FE11BB0FB00580165015301650153012B02CA026E
S3150FE11BC09102A702AA02D301CA02E1E7D1E700F027
S3150FE11BD0D7FA404540F0B482B07820B10698DFF8E5
S3150FE11BE06C15884243E03078C0074BD570780028F2
S3150FE11BF048D10698DFF8581588421CBFDFF854150F
S3150FE11C00884222D0DFF8501588421CBFDFF84C1509
S3150FE11C1088421AD0DFF84815884222D0DFF8281516
S3150FE11C20884263D0DFF83C15884213D0DFF83815C8
S3150FE11C3088420DD0DFF81415884215D0DFF82C1540
S3150FE11C4088421CBFDFF82815884200F0EE8011E0CC
S3150FE11C500E209CE70F203071B8683861002078615B
S3150FE11C6096E71220307163E000F0BCFB002840F0EC
S3150FE11C70DC8036E01220307106A800F040FC002827
S3150FE11C8056D0AAE10698DFF8CC1488421AD0DFF8CD
S3150FE11C90C814884214D0DFF8C414884214D0DFF890
S3150FE11CA0A81488421FD0DFF8A414884212D0DFF8B7
S3150FE11CB0BC1488420CD0DFF8B814884206D017E07E
S3150FE11CC0042064E7062062E7072060E709205EE764
S3150FE11CD00B205CE700F086FB002804BF7078002834
S3150FE11CE0C5D10C2053E770780028C0D110204EE7FC
S3150FE11CF006A800F004FCA0B10698786411203071B3
S3150FE11D00069800F0FEFB054630788006A8D5002D33
S3150FE11D10A6D069680800A3D02046884700289FD03F
S3150FE11D205BE112203071707810B141F2040007E2E5
S3150FE11D3041F2080004E2F868082831D20020019048
S3150FE11D40082300F03CFA4045F4D199F80300000668
S3150FE11D50B0F1407F04D01220307141F20900EFE17A
S3150FE11D6099F8050099F8041041EA00200290C0079E
S3150FE11D7004D5307840F00100307002E000F034FB1A
S3150FE11D8030B900F02FFB0028D5D00298C005D2D488
S3150FE11D901220307141F20A00D2E1BB68F86898422D
S3150FE11DA080F0C88101200190009000F003FA4045D0
S3150FE11DB0F2D119981C2208A9083000F057FA19999F
S3150FE11DC001204870E9E7052030710120F07000200D
S3150FE11DD0F861F8680828BFF4DBAE012001900090A6
S3150FE11DE0082300F0E7F94045D6D11999DFF88423A6
S3150FE11DF00120087000F0C8F919994860DFF87803F7
S3150FE11E00006801689142DED199F8062099F807102A
S3150FE11E10C068120442EA016199F8052041EA0221FC
S3150FE11E2099F8042011438142CDD012203071D4E0CC
S3150FE11E30012000F0BCF94045AED100F0A5F90290C2
S3150FE11E40B868052824BF0298B861F8680428EFD36B
S3150FE11E500A209CE60020F861082098E6DAF80030BF
S3150FE11E60F8695A4608A9E047F8695844F861B8682D
S3150FE11E70F968814294D2A0EB010BBBF1040F03A9E0
S3150FE11E80204604D3FFF763FD042804D26CE0FFF785
S3150FE11E905EFD584568D3BBF1410F28BF4FF0400BAC
S3150FE11EA000F081F9584502D200F07DF98346BBF186
S3150FE11EB0040F24BF4FEA9B004FEA800B00F086F92F
S3150FE11EC0404540F03D813079072804D1DAF808C062
S3150FE11ED0BCF1000FC2D1CBF10400BBF1040F0090AE
S3150FE11EE007D2014608A8FF22584400F093FA00985A
S3150FE11EF0834430790A2806D153465A4608A9204623
S3150FE11F00FFF7AAFCB3E70528B1D1DAF80C000028F0
S3150FE11F10ADD0F869052812D20BEB000107290ED3D4
S3150FE11F2008A9091D081A00900146042204F184004C
S3150FE11F3000F08CF90098FF22042100F06BFADAF831
S3150FE11F400030F869DAF80CC08BE73078800634D5C3
S3150FE11F50786C00F0D6FA05002FD13EE04FF0010B79
S3150FE11F6000F021F9584504D203A92046FFF7CCFC2E
S3150FE11F70E5E0B868F968A0EB010BBBF1410F28BFAB
S3150FE11F804FF0400B00F00FF9834502D300F00BF948
S3150FE11F90834600F01BF9404521D1307880060CD5F8
S3150FE11FA0DDB1D5F808C0BCF1000F16D053465A463D
S3150FE11FB008A92046E047002811D1F868B968884298
S3150FE11FC030780DD28006C9D5002DC7D02969080012
S3150FE11FD0C4D0204688478346C2E741F20100AFE00D
S3150FE11FE0800609D5002D07D0EA68100004D05146C6
S3150FE11FF0204690470028F2D19CE0002000F0D7F868
S3150FE12000404507D1386C5D49884204D012203071C2
S3150FE1201041F2050094E000F0E5F918B919990120AC
S3150FE12020C87003E01998C078002846D0F07850B10F
S3150FE12030DAF80C50280006D0DAF80030042204F161
S3150FE1204084010420A847B86900281CBFDAF8040008
S3150FE12050002832D04FF0FF30029004F180050422C0
S3150FE12060294602A800F050FA50B100F0C3F938B191
S3150FE120702946DAF80030DAF804500422001DA847A1
S3150FE12080042204F1680102A800F03EFAA8B100F0BB
S3150FE12090ADF9DAF80030DAF80450142204F16C01E4
S3150FE120A00830A84700F0A2F904F16801DAF8003028
S3150FE120B0DAF804400422001DA0471999012088701F
S3150FE120C00D2030713BE0F868102833D200200190E3
S3150FE120D0102300F074F8404532D1FEF7FBFF802163
S3150FE120E0009001910123386809AA022100F0D4F981
S3150FE120F0E9E7012070701DE0B078D8B90190009042
S3150FE12100402300F057F840451AD1786800F0C1F93D
S3150FE12110786810AA08A900F029FA38B119990020B0
S3150FE12120C8701220307141F2060009E019990120B9
S3150FE12130C870B07001202AE541F2070000E00020E7
S3150FE121401BB0BDE8F08F0000F70A0AF7FC0404FCA8
S3150FE12150EB17A603F40A0AF4F50909F5F60808F6EA
S3150FE12160F70909F7F90707F9FA0606FAFD0303FD79
S3150FE12170FE0101FEAD1007B02800E10FE320BBDE43
S3150FE1218006AA03A920464EE499F8021099F803002E
S3150FE12190090441EA006099F8011040EA01209DF82F
S3150FE121A020100843704703A92046FFF7D0BB0190E3
S3150FE121B00090042308AA03A92046FFF7CFBB01200D
S3150FE121C0009008AA03A92046FFF7C8BB012001909A
S3150FE121D000905B4608AA03A92046FFF7BFBB10B5DF
S3150FE121E0B1F5BC7F044602D240F2052010BD4FF493
S3150FE121F0BC71FFF7A1FA04F1FC0204F1B40104F199
S3150FE122002400BDE810400023FFF760BC10B582B093
S3150FE122100446009104F124002146FFF793FC0028C0
S3150FE122201CBF41F207018842C4F874010CD1A01C0E
S3150FE12230017839B1407810B140F2032016BD40F272
S3150FE12240022016BD40F2012016BDFEE762B38B07F1
S3150FE1225008D0521E11F8013B00F8013B00F0248033
S3150FE122608B07F6D1830740F0208000BF103A07D3E2
S3150FE1227030B4B1E83810103AA0E83810F9D230BCD2
S3150FE12280530724BFB1E80810A0E8081044BF51F87E
S3150FE12290043B40F8043BD20724BF31F8022B20F868
S3150FE122A0022B44BF0B7803707047083A07D3B1E8A6
S3150FE122B00810083A40F8043B40F804CBF7D253072D
S3150FE122C0E4E7FEE700B500BF1300964694461039E2
S3150FE122D028BFA0E80C50FAD85FEA417C28BF0CC0B2
S3150FE122E048BF40F8042BC90728BF20F8022B48BF87
S3150FE122F000F8012B00BDFEE7084841F67131816315
S3150FE1230001684908490001607047044801684908B6
S3150FE123104900016000218163704700000800004019
S3150FE1232010B50446FFF7E8FF204600F0ECF9044646
S3150FE12330FFF7EBFF601E8041C00F10BD10B584089B
S3150FE12340800782B005D5080440F47F4040F0FF00D6
S3150FE1235003E041F07F4040F47F000090FFF7CCFFB0
S3150FE1236004226946A00000F005FA0446FFF7CDFF07
S3150FE12370204616BD2DE9F04104460E46154604F0FA
S3150FE12380010005F00101084328D12DB3A00707D5B8
S3150FE1239036F8021B2046FFF7D1FFF8B9A41CAD1E94
S3150FE123A0042D13D3AF08FFF7A7FFBF003A46314617
S3150FE123B0204600F0DFF98046FFF7A7FF3C19ED1B3A
S3150FE123C07808B8F1000F06EB400607D125B1318841
S3150FE123D02046FFF7B3FF08B9012000E00020BDE872
S3150FE123E0F081FEE70020704700207047064801683C
S3150FE123F0086970470548064A00680168914201D1AC
S3150FE1240000697047002070472810E10F2800E10F9F
S3150FE12410AD1007B062F30F2262F31F42401810F0BE
S3150FE12420030308D0C91A1FD3DB0748BF00F8012DF4
S3150FE1243028BF20F8022D130030B414461546103983
S3150FE1244028BF20E93C00FAD8490728BF20E90C004C
S3150FE1245048BF40F8042D890028BF20F8022D48BF58
S3150FE1246000F8012D30BC7047C91818BF00F8012DCF
S3150FE12470CB0728BF00F8012D704710B5044600F0D1
S3150FE124801BFA2046BDE81040002100F01BBA00F010
S3150FE124902DBA014600F04EBA2DE9F843089D099F82
S3150FE124A080460E4691461C4600F04DFB3A462946BC
S3150FE124B0404600F04EFB08F124000021016006754D
S3150FE124C00C22494608F13900FFF7C0FE08F1450035
S3150FE124D0210C01708470210A4170BDE8F18310B5BA
S3150FE124E084B01C460191029200F12801009100F19E
S3150FE124F0380300F12402214600F051FB1FBD0020F5
S3150FE12500704700207047FEE70300002013F0030F2A
S3150FE1251009D0521E22BF13F8010B11F801CBB0EB14
S3150FE125200C00F3D07047121F22BF53F8040B51F87A
S3150FE1253004CB6045F7D0121D0AD200BA9CFA8CFC87
S3150FE12540B0EB0C0038BF6FF0000088BF0120704779
S3150FE12550521E22BF13F8010B11F801CBB0EB0C00A1
S3150FE12560F6D0521C08BF10467047000070B5060042
S3150FE125700D4618BF002DA2B0144600D014B940F293
S3150FE12580016023E00121124800F0BEFB402111A8B2
S3150FE12590FFF7D2F8FEF79AFD014611A800F0C7FE44
S3150FE125A0FEF796FD014619A800F0C1FE294601A8DE
S3150FE125B000F0BDFE214609A800F0B9FE01A8009082
S3150FE125C011AB20223146034800F0C0FE22B070BDA8
S3150FE125D00015080000000F4010B56949694A01E08E
S3150FE125E021B1491E1369DC07FAD411B96FF0020064
S3150FE125F010BD506001201060106910F0060F09D070
S3150FE12600410702D54FF0FF3010BD800702D56FF0BD
S3150FE12610010010BD002010BDF0B5034610460022A3
S3150FE12620002938D0564C574D90B900268E4232D2FA
S3150FE1263053F8040BE860761C08202860204601E079
S3150FE1264038B3401E2F69FF07FAD40028EED120E0F8
S3150FE12650EFF3108072B600260FE02F6907F0190726
S3150FE12660102F04BF10272F602F693F07F5D553F8B9
S3150FE12670047BEF60761C10272F608E42F4D300B9EE
S3150FE1268062B6204601E020B1401E2969CB07FAD494
S3150FE1269008B96FF002021046F0BD2DE9F047364D4D
S3150FE126A0364F2E682D683E6846F0010682463E603B
S3150FE126B000204FEA920881460E461D4613E0C4F309
S3150FE126C00B04C4F58054A408A8EB0900A04238BF57
S3150FE126D004462A4621463046FFF79EFF01000CD1FC
S3150FE126E0A14406EB8406C14507D20AEB89042046CD
S3150FE126F0FFF772FF0100E2D003E0396849084900AC
S3150FE127003960BDE8F0871C4A136812681B4A1368E3
S3150FE1271043F00103136001469160012151601848AE
S3150FE1272051694B0706D510684008400010604FF01D
S3150FE12730FF30704751698B0706D510684008400096
S3150FE1274010606FF0010070470221516001E020B186
S3150FE12750401E5169CB07FAD430B9106840084000E2
S3150FE1276010606FF002007047116849084900116067
S3150FE1277000207047002390E704300E400800004028
S3150FE12780809698000C00004010B54A688B68CC68BB
S3150FE127900968016002600360046010BD10B502684C
S3150FE127A00368046800680A608C604B60C86010BDFE
S3150FE127B038B504460D46FFF7E7FF05F11001204650
S3150FE127C0FFF7E2FF05F120012046FFF7DDFF05F1F7
S3150FE127D030012046BDE83440D6E72DE9F04F91B000
S3150FE127E00446884691461D4600F033FF064615B16D
S3150FE127F0012D3CD059E000203060002100207060AF
S3150FE12800F06406F58275706820F44060706031639C
S3150FE12810716300F033FF074621462846FFF7B4FF01
S3150FE1282004F110012846FFF7AFFF384600F02AFF03
S3150FE128301F483065002706F5D2754F4521D208EBC3
S3150FE12840871A1AF0030014D0402251466846FFF763
S3150FE12850FDFC00F013FF834669462846FFF7A8FF04
S3150FE12860584600F00FFF134830657F1CE5E704205B
S3150FE12870C2E700F003FF834651462846FFF798FF6C
S3150FE12880EEE700F0FBFE054606F580772146384672
S3150FE12890FFF784FF04F110013846FFF77FFF284663
S3150FE128A000F0F0FE304600F0DDFE11B0BDE8F08F2E
S3150FE128B0888AC801070D810100281CBF6C21FEF72C
S3150FE128C03BBF704700220262426231B1012180F8BB
S3150FE128D0681020220FF2541104E080F868102022CC
S3150FE128E00FF22811FFF7C2BC01238BE02DE9F0416E
S3150FE128F01400054688461BD000F049F8A6B1BC4244
S3150FE1290012D300F03EF805F128012846FFF7ECFF58
S3150FE12910B844E41B002607E0A709012300F02DF8D0
S3150FE1292008EB8718A4EB87143F2CF5D804B13BE0ED
S3150FE12930BDE8F08130B504460D4683B000F03DF8B1
S3150FE1294034BFC2F13802C2F17802FFF7CFFF082296
S3150FE1295069462046FFF7CAFF002105E0880854F8CB
S3150FE12960202010BA6850091D94F86800002814BF9A
S3150FE129701C2020208142F1D337BD3A4641462846F5
S3150FE129802BE705F128003A463044FFF75FBC286A8A
S3150FE1299000F03F062018A042C6F14007286202D296
S3150FE129A0686A401C6862704705F128002246414675
S3150FE129B03044BDE8F041FFF749BC616A206AC900BE
S3150FE129C041EA50718DF80310C0000A0E8DF8002010
S3150FE129D00B0C8DF80130020A0B0A010E8DF804106B
S3150FE129E08DF80620010C8DF802308DF805108DF863
S3150FE129F00700204694F820200FF2500102F03F0223
S3150FE12A00382A70470122E8E60000000067E6096A06
S3150FE12A1085AE67BB72F36E3C3AF54FA57F520E5109
S3150FE12A208C68059BABD9831F19CDE05BD89E05C199
S3150FE12A3007D57C3617DD703039590EF7310BC0FFEC
S3150FE12A4011155868A78FF964A44FFABE80000000EC
S3150FE12A500000000000000000000000000000000080
S3150FE12A600000000000000000000000000000000070
S3150FE12A700000000000000000000000000000000060
S3150FE12A80000000000000000000000000890001EBDB
S3150FE12A90401101F184410A60704710B54A688B68AD
S3150FE12AA0CC680968016002600360046010BDF4E759
S3150FE12AB010B502680368046800680A608C604B60B1
S3150FE12AC0C86010BD38B5102A04460D460DD1012256
S3150FE12AD00021FFF7DBFF04F5887429462046FFF74F
S3150FE12AE0DCFF05F11001204606E000220021FFF789
S3150FE12AF0CDFF294604F12400BDE83440CDE71FB5EB
S3150FE12B000C4614F0030108D06946FFF7D1FF1022F6
S3150FE12B1069462046FFF79AFB1FBD2146FFF7C8FF1F
S3150FE12B201FBD1FB5044611F0030008D010226846F9
S3150FE12B30FFF78CFB69462046FFF7B9FF1FBD20461D
S3150FE12B40FFF7B5FF1FBD00281CBF2421FEF7F4BD1B
S3150FE12B50704770B505000C4618BF002C164602D11A
S3150FE12B606FF0210070BD2421FEF7E6FD802E18BF20
S3150FE12B70B6F5807F02D06FF01F0070BD2E60F208B0
S3150FE12B802146281DFFF762FB002070BD05F1A0006D
S3150FE12B90C7E7284600F066BD011D284692E72DE9F5
S3150FE12BA0FE4F002A14BF1468002400278A460090BE
S3150FE12BB000281CBF0D99002906D00E98002818BFD2
S3150FE12BC0002B01D00C9810B96FF021006BE0009843
S3150FE12BD00068802818BFB0F5807F04D06FF01F0022
S3150FE12BE061E000F062F8574559D2002CF9D100F0B7
S3150FE12BF030FD054600206860AAEB07094FF4404017
S3150FE12C0000F068F806460098016880290CBF082293
S3150FE12C101022FFF7C1FF029905F18400FFF781FF4B
S3150FE12C2000F055F8002611E000F04BF8761C00F0A5
S3150FE12C3025FD83460D98C119FFF7A8FF0E98C11917
S3150FE12C4000F04FF8584600F01DFD1037B6EB191F8F
S3150FE12C5015D24820A8600520A860E5E76CB94820A1
S3150FE12C60A8600520A86000F02CF800F007FD0646E5
S3150FE12C700C9900F036F800F02AF800F016F8BAEBE6
S3150FE12C800700EBD100F0FAFC0646029905F1840044
S3150FE12C90FFF735FF00F01BF8FFF77BFFA3E701987E
S3150FE12CA000B104600020BDE8FE8F0D98C15D0C9860
S3150FE12CB00E9A005D4140D155641C04F00F047F1C50
S3150FE12CC0704728698107FCD40321A9607047304614
S3150FE12CD000F0D8BC286005F1800800F0CFBC0746AC
S3150FE12CE00E9940460BE70000890001EB401101F117
S3150FE12CF084410A607047DFF8A0104A68D30702D40F
S3150FE12D000B680342FCD1704770B502460C460020B2
S3150FE12D10491E8941160A06F00F06761E0E2EDFF8BA
S3150FE12D207C50DFF87C3016D8DFE806F0081615156B
S3150FE12D300A1A1D202432282C15182F00DFF85450BB
S3150FE12D40C2F3043608B1FFF7D6FF224631462846CD
S3150FE12D50BDE87040C8E770BD1035F1E71435EFE710
S3150FE12D6030350120ECE738351020E9E73C354FF4F3
S3150FE12D708070E5E740354FF48030E1E703F1100568
S3150FE12D80CC0FDDE703F11405FAE7DFF81850D7E7C3
S3150FE12D901D46D5E700400E4040410E40B0400E4083
S3150FE12DA050410E40F0410E4010B54A688B68CC6831
S3150FE12DB00968016002600360046010BD10B5026826
S3150FE12DC00368046800680A608C604B60C86010BDD8
S3150FE12DD038B504460D46FFF7E7FF05F1100120462A
S3150FE12DE0BDE83440E0E738B504460D46FFF7E6FFA8
S3150FE12DF005F110012046BDE83440DFE710B500F0DC
S3150FE12E0010F8BDE8104000F10C0106E010B500F036
S3150FE12E1008F8BDE8104000F12C0120221846FFF713
S3150FE12E2015BA0B468C240FF2907160430844704734
S3150FE12E30F8B500F062F90746294604F58470FFF705
S3150FE12E40C7FF314604F58670FFF7C2FF384600F03B
S3150FE12E5019FCDFF8C8062065012060656069000E80
S3150FE12E6000F0010080F00100F2BD2DE9F04F89B0CD
S3150FE12E7004460D4692461E4600F000FC834604F5D5
S3150FE12E80827705F1400100F02CF904F58678514679
S3150FE12E9000F08EFB04F588790AF120014846FFF729
S3150FE12EA097FF00F019F9DFF87806206504F5847AC3
S3150FE12EB000F019F98346294600F013F905F12001CF
S3150FE12EC05046FFF785FF05F140014846FFF780FFC2
S3150FE12ED000F002F9DFF84C06206504F58079DFF89A
S3150FE12EE0480600F04BF8834606F140014846FFF7E6
S3150FE12EF07AFF69465046FFF776FF00F0EDF800F0EE
S3150FE12F00BDFB834600F053FB00F0E6F8DFF81C0645
S3150FE12F102065DFF81C066065DFF8180600F0E8F8B3
S3150FE12F20804600F0DCF800F02DF9DFF80C0620659D
S3150FE12F30DFF8080600F022F8054631465046FFF75E
S3150FE12F4052FF284600F09EFB00F098FB05466946C6
S3150FE12F503846FFF73DFF284600F094FBDFF8E00522
S3150FE12F602065DFF8E00500F009F8044600F0B0F857
S3150FE12F70204600F087FB09B0BDE8F08F60650120C0
S3150FE12F80A06500F07BBB2DE9F04F99B000F0B5F8E5
S3150FE12F90804604F5827700F0A2F800F0F3F8DFF847
S3150FE12FA08005206504F58078DFF89C056065DFF81C
S3150FE12FB09C05FFF7E5FF814608A94046FFF713FF9A
S3150FE12FC0484600F05FFB00F059FB814600F0EFFA4F
S3150FE12FD0484600F057FBDFF87805206504F586795A
S3150FE12FE0DFF8700560654FF48670FFF7C9FF82461B
S3150FE12FF010A94846FFF7F7FE69464046FFF7F3FE8D
S3150FE1300000F0D2FA00F03AFB824605F1400100F0FA
S3150FE1301068F800F0C9FADFF84005206504F5847A0F
S3150FE130200120606500F02AFB834629465046FFF7EB
S3150FE13030CFFE00F051F8DFF824052065DFF8200513
S3150FE130406065DFF8200500F053F883466946504680
S3150FE13050FFF7BEFE10A94846FFF7BAFE00F03CF8AF
S3150FE13060DFF804052065DFF804056065DFF8000584
S3150FE13070FFF786FF8346314604F58870FFF7B3FE07
S3150FE1308000F02AF800F0FAFA834600F028F805F185
S3150FE1309040015046FFF79CFE08A94846FFF798FE08
S3150FE130A000F01AF8DFF8CC042065DFF8CC04606590
S3150FE130B000F0E4FA044606F140014046FFF793FEBD
S3150FE130C000F006F8204600F0DDFA19B0BDE8F08F02
S3150FE130D006F12001484686E6584600F0D3BA05F1D7
S3150FE130E02001384674E6DFF894046065DFF8900452
S3150FE130F0A0650120E06500F0C1BA04460D4616460B
S3150FE1310000F0BCBA2DE9F04105460E461C461746BE
S3150FE1311020212046FEF710FB0120206000F0AEFAD9
S3150FE131208046394605F58070FFF752FE314605F5C3
S3150FE131308270FFF74DFE05F5847621463046FFF79F
S3150FE1314047FE00F01FF8DFF83C0428650BE0DFF8D7
S3150FE1315038042865DFF834046865DFF83404A865B8
S3150FE13160DFF83004E8656869C101F0D500F086FA49
S3150FE13170054621463046FFF736FE2846BDE8F041C3
S3150FE1318000F080BA404600F07DBA50F8043B934216
S3150FE1319003D007E050F8042B22B9091F0129F9DA08
S3150FE131A001207047002070472DE9F04188B00446B1
S3150FE131B00F460E9D1646984620216846FEF7BCFA45
S3150FE131C00120009020212846FEF7B6FA202105F1CD
S3150FE131D02000FEF7B1FA202105F14000FEF7ACFA27
S3150FE131E08C200FF2D43110FB07F7CF192046397A2D
S3150FE131F000F04CFA00202060206360637F687F1E39
S3150FE13200002F3ADD00F03EF8F9D536E020223146BF
S3150FE132102846FFF72BF8202206F1200105F12000C1
S3150FE13220FFF724F82022694605F14000FFF71EF863
S3150FE1323022E02A4629462046FFF7A5FE00F022F8AE
S3150FE132401AD5002220212846FFF79FFF70B10022F1
S3150FE13250202105F12000FFF798FF38B10022202148
S3150FE1326005F14000FFF791FF0028CFD12B463246FB
S3150FE1327029462046FFF7F9FD7F1E002FD9D508B065
S3150FE13280BDE8F081381107EBD060401158F82010F6
S3150FE13290A7EB4010C140C90770472DE9F04116462B
S3150FE132A004460F468C220FF2103012FB07F2104440
S3150FE132B090B0017A1D46204600F0E8F90020206023
S3150FE132C02063606369463846FFF798FD08AB6A46A7
S3150FE132D006F140012046FFF715FF00F0CFF98046D2
S3150FE132E008A904F58270FFF773FD04F58677314679
S3150FE132F0FFF7F7FE06F1200104F58870FFF768FD89
S3150FE13300FFF740FF86482065FFF7EDFE064605F11C
S3150FE13310200104F58070FFF766FD29463846FFF771
S3150FE1332062FD304600F0AEF910B0BDE8F08138B578
S3150FE133300D4604462021FEF7FFF9FFE71F20424223
S3150FE13340295C2244401ED177F9D531BD2DE9F047ED
S3150FE133500D001C4618BF002CBAB00746164603D01F
S3150FE13360429808B1002E02DC40F20160D1E0002064
S3150FE133703860386378630C21786840F01000786024
S3150FE13380384600F083F9786820F4406040F4006035
S3150FE13390786011A9786820F4407040F40070786085
S3150FE133A00020FFF733FD429911AA3846FFF740FD9A
S3150FE133B038B9429800F1200111AA3846FFF738FDD6
S3150FE133C010B140F20260A4E0202EC8BF20262021D2
S3150FE133D019A8FEF7B1F9002014E0321A521E09A915
S3150FE133E09208A6F1010C01EB8201ACEB000C2B5C10
S3150FE133F00A6C4FEACC0C0CF0180C03FA0CF31A43D7
S3150FE134000A64401CB042E8DB00F038F9064607F5DE
S3150FE13410847519A92846FFF7DBFC304600F032F92F
S3150FE134205D48386507F5807600F028F9804619A9D9
S3150FE134303046FFF7D8FCFFF7A5FE429800F12001D1
S3150FE1344001AB11AA3846FFF75DFE00F017F9824688
S3150FE1345001A907F58270FFF7BBFC07F5887919A972
S3150FE134604846FFF7B5FC07F58678429900F0A0F8D4
S3150FE1347000F09AF8494838654948786500F0FEF852
S3150FE13480824619A94846FFF7AEFC01A93046FFF778
S3150FE13490AAFC00F089F821A8009019AB0FF264128B
S3150FE134A000213846FFF780FE09A8009001AB2246BE
S3150FE134B000213846FFF778FE21AB21AA00213846D5
S3150FE134C0FFF7EBFE09AB21AA09A93846FFF7CDFCB9
S3150FE134D009AB09AA00213846FFF7DFFE00F0CEF867
S3150FE134E004460C21384600F0D1F809A92846FFF722
S3150FE134F06FFC429900F05CF8204600F0C3F82948CA
S3150FE135003865244878657869C1014CBF002040F2DF
S3150FE1351004603AB0BDE8F087000000003035DA10FC
S3150FE135208AD11C81D01482CB1481E11C8CE11C81E0
S3150FE135301C84D91C8391D11CE014D8141482E11C8C
S3150FE1354084D31482D11CE014821CC00C0C0C010034
S3150FE13550C00C0C83D91C83D88AD11C83DA0C811455
S3150FE1356082D11C81C80C0C818CE11CD01484E3142C
S3150FE1357082D11C01D81483D11CC00C01D91C83D173
S3150FE135801C81E11C39398401D02484FC1C82FED8CC
S3150FE135908B1C81A03938010030D00C0130E11C843D
S3150FE135A030D91C013035DA14504600F06BB8294694
S3150FE135B04046FFF70DBC00002000000000010000AF
S3150FE135C0050C0000FFFFFFFFFFFFFFFFFFFFFFFF00
S3150FE135D000000000000000000000000001000000F4
S3150FE135E0FFFFFFFF512563FCC2CAB9F3849E17A7FC
S3150FE135F0ADFAE6BCFFFFFFFFFFFFFFFF0000000094
S3150FE13600FFFFFFFF96C298D84539A1F4A033EB2D02
S3150FE13610817D0377F240A463E5E6BCF847422CE1EE
S3150FE13620F2D1176BF551BF376840B6CBCE5E316B32
S3150FE136305733CE2B169E0F7C4AEBE78E9B7F1AFEF6
S3150FE13640E242E34F890001EB401101F184410A6047
S3150FE13650704780B5FFE7012201210648FFF7F2FF28
S3150FE13660054802BD0449884203D1002201210148E0
S3150FE13670E8E77047B0400E4000000F40EFF31080CF
S3150FE1368072B6704700B962B67047000042685209D8
S3150FE13690042941EA42120AD9491F022905D9C91E4D
S3150FE136A0032904D9091F022902D842F01002426008
S3150FE136B0704700004FF40170FEF708F800BF3D4870
S3150FE136C03D4A01683D48116082B0026842F001024D
S3150FE136D00260016B41F00801016339490A6842F45E
S3150FE136E080520A60016B21F00801016340210268F3
S3150FE136F05208520002603348C16001684A03FCD4A4
S3150FE1370000F06AF8FDF7DDFFFDF7EFFC10B940F2C7
S3150FE13710012010E02C49009102E0009A521E00921E
S3150FE1372000990129F9DA40F20542904214BF4FF4AC
S3150FE13730017040F20320FDF7C9FF00BF38B52348FA
S3150FE13740016801240125B1F5803F08BF00250FD09F
S3150FE13750006841050CD5FDF7DBFF40F20221401A67
S3150FE1376004D0C01E02D0C01E012801D800240025B6
S3150FE137700420016811F1010F06D1BDE832404FF483
S3150FE137800270FDF797BF31BD25B1002000F082F839
S3150FE137900400F2D0002CF6D00D490020086000227B
S3150FE137A01046016881F3088881F3098840688746E6
S3150FE137B0FEE70000880000208C000020B0400E409C
S3150FE137C03440054004300E4000350C0004500E40E5
S3150FE137D008ED00E000207047FDF7B5BFFEF70AB828
S3150FE137E02DE9F041044667480068884601691646A7
S3150FE137F08C4222BF37194069B84216D3200BB4EB7E
S3150FE13800003004BF2046FEF78BFD04F58050050B13
S3150FE138102D0304E02846FEF783FD05F58055BD42ED
S3150FE13820F8D332464146204630E0BDE8F0812DE936
S3150FE13830F04188465449554B096815460A689A423C
S3150FE1384022D1096946184F4909684A69AF19BA423F
S3150FE138501AD310B90869FEF763FD300BB6EB0030EA
S3150FE1386004BF3046FEF75CFD06F58050040B2403DA
S3150FE1387004E02046FEF754FD04F58054BC42F8D32C
S3150FE138802A464146304601E0BDE8F081BDE8F04108
S3150FE13890FEF770BD50B585B0044668460FF20411C8
S3150FE138A01022FEF7E3FC22686068616B02F1604269
S3150FE138B0B2F5002F29D8334A12681269904224D300
S3150FE138C0334B984221D202F1400081420E4601D399
S3150FE138D0994205D3FFF77EFF401E8041C00F1BE0E3
S3150FE138E0FFF778FF98B900F057F8A0B9706990B172
S3150FE138F002280CD1B069001D011B4FF0FF322046A3
S3150FE13900FDF79AFF2349884205D0002004E02046BF
S3150FE1391000F004F800E0012005B050BD50B59FB0AE
S3150FE13920044668460FF28C011022FEF79FFC666B88
S3150FE1393000F032F818B9706901280AD1B669114851
S3150FE1394000680069864228BFA64202D3B6F5001F7A
S3150FE1395001D9002013E004A8FEF78FFD321B2146A3
S3150FE1396004A8FEF794FD04A8FEF793FD06F12002E5
S3150FE13970314604A8FEF7FAFD401E8041C00F1FB085
S3150FE1398050BD00002810E10F2800E10FAD1007B080
S3150FE1399001002000E320BBDE102269463046FEF728
S3150FE139A0B3BD000013B779FAC925DDB7ADF3CFE0A3
S3150FE139B0F1B614B813B779FAC925DDB7ADF3CFE090
S3150FE139C0F1B614B80248016841F47001016070471D
S3150FE139D088ED00E04EF68851CEF20001086840F41A
S3150FE139E070000860BFF34F8FBFF36F8F4FF000701A
S3150FE139F0E1EE100A7047000000F00BF8002801D045
S3150FE13A0000F00AF80020AFF30080FFF758FE00F050
S3150FE13A1017F801207047000010B5074979441831AE
S3150FE13A20064C7C44163404E00A68081D11448847A5
S3150FE13A300146A142F8D110BD8000000090000000C0
S3150FE13A4000F000B80746384600F002F8FBE7000041
S3150FE13A502021090326311820ABBEF9E780F0FA02DF
S3150FE13A6000800000C0EA2101C0EA210180B5FFF71D
S3150FE13A70A9FFFFF763FEBDE8014000F000B8AFF321
S3150FE13A800080FFF7A7FFFFF7B7FF10B450F8041B4D
S3150FE13A9079B10268436802440830DC0744BFA9F1F3
S3150FE13AA00104E31852F8044B43F8044B091FF9D10B
S3150FE13AB0ECE710BC70470000D3FFFFFF10000000DA
S3150FE13AC09CFFFFFF800000200000000000000000C7
S5030308F1
S70500000000FA
